{
  "contractName": "ChallengeManager",
  "abi": [
    {
      "inputs": [
        {
          "internalType": "uint256",
          "name": "",
          "type": "uint256"
        }
      ],
      "name": "challenges",
      "outputs": [
        {
          "internalType": "contract Challenge",
          "name": "challenge",
          "type": "address"
        },
        {
          "internalType": "address",
          "name": "creator",
          "type": "address"
        }
      ],
      "stateMutability": "view",
      "type": "function",
      "constant": true
    },
    {
      "inputs": [
        {
          "internalType": "uint256",
          "name": "_challengeDuration",
          "type": "uint256"
        },
        {
          "internalType": "uint256",
          "name": "_depositAmount",
          "type": "uint256"
        }
      ],
      "name": "createChallenge",
      "outputs": [
        {
          "internalType": "contract Challenge",
          "name": "",
          "type": "address"
        }
      ],
      "stateMutability": "nonpayable",
      "type": "function"
    },
    {
      "inputs": [],
      "name": "getChallengesCount",
      "outputs": [
        {
          "internalType": "uint256",
          "name": "",
          "type": "uint256"
        }
      ],
      "stateMutability": "view",
      "type": "function",
      "constant": true
    },
    {
      "inputs": [
        {
          "internalType": "uint256",
          "name": "index",
          "type": "uint256"
        }
      ],
      "name": "getChallengeByIndex",
      "outputs": [
        {
          "internalType": "contract Challenge",
          "name": "",
          "type": "address"
        },
        {
          "internalType": "address",
          "name": "",
          "type": "address"
        }
      ],
      "stateMutability": "view",
      "type": "function",
      "constant": true
    }
  ],
  "bytecode": "0x608060405234801561001057600080fd5b50611e52806100206000396000f3fe608060405234801561001057600080fd5b506004361061004c5760003560e01c806322bee071146100515780635c2cc3321461008257806384f61585146100a05780638f1d3776146100d0575b600080fd5b61006b6004803603810190610066919061044b565b610101565b604051610079929190610518565b60405180910390f35b61008a61023b565b6040516100979190610550565b60405180910390f35b6100ba60048036038101906100b5919061056b565b610247565b6040516100c791906105ab565b60405180910390f35b6100ea60048036038101906100e5919061044b565b61038e565b6040516100f8929190610518565b60405180910390f35b600080600080549050831061014b576040517f08c379a000000000000000000000000000000000000000000000000000000000815260040161014290610623565b60405180910390fd5b60008084815481106101605761015f610643565b5b90600052602060002090600202016040518060400160405290816000820160009054906101000a900473ffffffffffffffffffffffffffffffffffffffff1673ffffffffffffffffffffffffffffffffffffffff1673ffffffffffffffffffffffffffffffffffffffff1681526020016001820160009054906101000a900473ffffffffffffffffffffffffffffffffffffffff1673ffffffffffffffffffffffffffffffffffffffff1673ffffffffffffffffffffffffffffffffffffffff16815250509050806000015181602001519250925050915091565b60008080549050905090565b600080838360405161025890610402565b610263929190610672565b604051809103906000f08015801561027f573d6000803e3d6000fd5b509050600060405180604001604052808373ffffffffffffffffffffffffffffffffffffffff1681526020013373ffffffffffffffffffffffffffffffffffffffff168152509050600081908060018154018082558091505060019003906000526020600020906002020160009091909190915060008201518160000160006101000a81548173ffffffffffffffffffffffffffffffffffffffff021916908373ffffffffffffffffffffffffffffffffffffffff16021790555060208201518160010160006101000a81548173ffffffffffffffffffffffffffffffffffffffff021916908373ffffffffffffffffffffffffffffffffffffffff1602179055505050819250505092915050565b6000818154811061039e57600080fd5b90600052602060002090600202016000915090508060000160009054906101000a900473ffffffffffffffffffffffffffffffffffffffff16908060010160009054906101000a900473ffffffffffffffffffffffffffffffffffffffff16905082565b611781806200069c83390190565b600080fd5b6000819050919050565b61042881610415565b811461043357600080fd5b50565b6000813590506104458161041f565b92915050565b60006020828403121561046157610460610410565b5b600061046f84828501610436565b91505092915050565b600073ffffffffffffffffffffffffffffffffffffffff82169050919050565b6000819050919050565b60006104bd6104b86104b384610478565b610498565b610478565b9050919050565b60006104cf826104a2565b9050919050565b60006104e1826104c4565b9050919050565b6104f1816104d6565b82525050565b600061050282610478565b9050919050565b610512816104f7565b82525050565b600060408201905061052d60008301856104e8565b61053a6020830184610509565b9392505050565b61054a81610415565b82525050565b60006020820190506105656000830184610541565b92915050565b6000806040838503121561058257610581610410565b5b600061059085828601610436565b92505060206105a185828601610436565b9150509250929050565b60006020820190506105c060008301846104e8565b92915050565b600082825260208201905092915050565b7f496e76616c696420696e6465782e000000000000000000000000000000000000600082015250565b600061060d600e836105c6565b9150610618826105d7565b602082019050919050565b6000602082019050818103600083015261063c81610600565b9050919050565b7f4e487b7100000000000000000000000000000000000000000000000000000000600052603260045260246000fd5b60006040820190506106876000830185610541565b6106946020830184610541565b939250505056fe60806040523480156200001157600080fd5b506040516200178138038062001781833981810160405281019062000037919062000136565b6000821180156200005657506000600783620000549190620001ac565b145b62000098576040517f08c379a00000000000000000000000000000000000000000000000000000000081526004016200008f906200026b565b60405180910390fd5b816001819055508060028190555033600460006101000a81548173ffffffffffffffffffffffffffffffffffffffff021916908373ffffffffffffffffffffffffffffffffffffffff1602179055504260078190555050506200028d565b600080fd5b6000819050919050565b6200011081620000fb565b81146200011c57600080fd5b50565b600081519050620001308162000105565b92915050565b6000806040838503121562000150576200014f620000f6565b5b600062000160858286016200011f565b925050602062000173858286016200011f565b9150509250929050565b7f4e487b7100000000000000000000000000000000000000000000000000000000600052601260045260246000fd5b6000620001b982620000fb565b9150620001c683620000fb565b925082620001d957620001d86200017d565b5b828206905092915050565b600082825260208201905092915050565b7f4368616c6c656e6765206475726174696f6e2073686f756c642062652061207060008201527f6f736974697665206d756c7469706c65206f6620372064617973000000000000602082015250565b600062000253603a83620001e4565b91506200026082620001f5565b604082019050919050565b60006020820190508181036000830152620002868162000244565b9050919050565b6114e4806200029d6000396000f3fe6080604052600436106101095760003560e01c806385f88c6a11610095578063ae169a5011610064578063ae169a501461032c578063bc3fde4e14610355578063e1e2955814610380578063e94b375e146103a9578063f21e5226146103e657610109565b806385f88c6a146102a15780638942d0b3146102cc5780639b5655dc146102d6578063a26dbf261461030157610109565b80632e3df5df116100dc5780632e3df5df146101cc578063313dab20146101f5578063419759f514610220578063626338741461024b578063848bc5311461027657610109565b806309e69ede1461010e5780631e2f73b11461014b57806324d2a71314610176578063292f2e0e146101a1575b600080fd5b34801561011a57600080fd5b5061013560048036038101906101309190610e11565b6103fd565b6040516101429190610e57565b60405180910390f35b34801561015757600080fd5b5061016061041b565b60405161016d9190610e81565b60405180910390f35b34801561018257600080fd5b5061018b610441565b6040516101989190610e57565b60405180910390f35b3480156101ad57600080fd5b506101b6610447565b6040516101c39190610e57565b60405180910390f35b3480156101d857600080fd5b506101f360048036038101906101ee9190610ec8565b61044d565b005b34801561020157600080fd5b5061020a6105b8565b6040516102179190610e57565b60405180910390f35b34801561022c57600080fd5b506102356105be565b6040516102429190610e57565b60405180910390f35b34801561025757600080fd5b506102606105c4565b60405161026d9190610e57565b60405180910390f35b34801561028257600080fd5b5061028b6105ca565b6040516102989190610e57565b60405180910390f35b3480156102ad57600080fd5b506102b66105d0565b6040516102c39190610e57565b60405180910390f35b6102d46105da565b005b3480156102e257600080fd5b506102eb610780565b6040516102f89190610e57565b60405180910390f35b34801561030d57600080fd5b5061031661078a565b6040516103239190610e57565b60405180910390f35b34801561033857600080fd5b50610353600480360381019061034e9190610ec8565b610790565b005b34801561036157600080fd5b5061036a610941565b6040516103779190610e57565b60405180910390f35b34801561038c57600080fd5b506103a760048036038101906103a29190610ec8565b610966565b005b3480156103b557600080fd5b506103d060048036038101906103cb9190610ec8565b610abb565b6040516103dd9190610e81565b60405180910390f35b3480156103f257600080fd5b506103fb610afa565b005b60086020528060005260406000206000915090508060000154905081565b600460009054906101000a900473ffffffffffffffffffffffffffffffffffffffff1681565b60075481565b60015481565b600860003373ffffffffffffffffffffffffffffffffffffffff1673ffffffffffffffffffffffffffffffffffffffff168152602001908152602001600020600101600082815260200190815260200160002060009054906101000a900460ff16156104ee576040517f08c379a00000000000000000000000000000000000000000000000000000000081526004016104e590610f78565b60405180910390fd5b6000600154600860003373ffffffffffffffffffffffffffffffffffffffff1673ffffffffffffffffffffffffffffffffffffffff168152602001908152602001600020600001546105409190610ff6565b905080600860003373ffffffffffffffffffffffffffffffffffffffff1673ffffffffffffffffffffffffffffffffffffffff16815260200190815260200160002060000160008282546105949190611027565b9250508190555080600660008282546105ad919061105b565b925050819055505050565b60055481565b60025481565b60065481565b60005481565b6000600654905090565b600254341461061e576040517f08c379a0000000000000000000000000000000000000000000000000000000008152600401610615906110db565b60405180910390fd5b6000600860003373ffffffffffffffffffffffffffffffffffffffff1673ffffffffffffffffffffffffffffffffffffffff16815260200190815260200160002060000154146106a3576040517f08c379a000000000000000000000000000000000000000000000000000000000815260040161069a90611147565b60405180910390fd5b34600860003373ffffffffffffffffffffffffffffffffffffffff1673ffffffffffffffffffffffffffffffffffffffff1681526020019081526020016000206000018190555034600560008282546106fc919061105b565b925050819055506009339080600181540180825580915050600190039060005260206000200160009091909190916101000a81548173ffffffffffffffffffffffffffffffffffffffff021916908373ffffffffffffffffffffffffffffffffffffffff1602179055506003600081548092919061077990611167565b9190505550565b6000600554905090565b60035481565b600860003373ffffffffffffffffffffffffffffffffffffffff1673ffffffffffffffffffffffffffffffffffffffff168152602001908152602001600020600101600082815260200190815260200160002060009054906101000a900460ff16610830576040517f08c379a000000000000000000000000000000000000000000000000000000000815260040161082790611221565b60405180910390fd5b6000600154600860003373ffffffffffffffffffffffffffffffffffffffff1673ffffffffffffffffffffffffffffffffffffffff168152602001908152602001600020600001546108829190610ff6565b905080600860003373ffffffffffffffffffffffffffffffffffffffff1673ffffffffffffffffffffffffffffffffffffffff16815260200190815260200160002060000160008282546108d69190611027565b9250508190555080600560008282546108ef9190611027565b925050819055503373ffffffffffffffffffffffffffffffffffffffff166108fc829081150290604051600060405180830381858888f1935050505015801561093c573d6000803e3d6000fd5b505050565b6000620151806001546109549190611241565b600754610961919061105b565b905090565b6001548111156109ab576040517f08c379a00000000000000000000000000000000000000000000000000000000081526004016109a2906112cf565b60405180910390fd5b600860003373ffffffffffffffffffffffffffffffffffffffff1673ffffffffffffffffffffffffffffffffffffffff168152602001908152602001600020600101600082815260200190815260200160002060009054906101000a900460ff1615610a4c576040517f08c379a0000000000000000000000000000000000000000000000000000000008152600401610a4390611361565b60405180910390fd5b6001600860003373ffffffffffffffffffffffffffffffffffffffff1673ffffffffffffffffffffffffffffffffffffffff168152602001908152602001600020600101600083815260200190815260200160002060006101000a81548160ff02191690831515021790555050565b60098181548110610acb57600080fd5b906000526020600020016000915054906101000a900473ffffffffffffffffffffffffffffffffffffffff1681565b610b02610941565b421015610b44576040517f08c379a0000000000000000000000000000000000000000000000000000000008152600401610b3b906113cd565b60405180910390fd5b600460009054906101000a900473ffffffffffffffffffffffffffffffffffffffff1673ffffffffffffffffffffffffffffffffffffffff163373ffffffffffffffffffffffffffffffffffffffff1614610bd4576040517f08c379a0000000000000000000000000000000000000000000000000000000008152600401610bcb9061145f565b60405180910390fd5b600060646014600654610be79190611241565b610bf19190610ff6565b905060006064603c600654610c069190611241565b610c109190610ff6565b9050600060646014600654610c259190611241565b610c2f9190610ff6565b9050600460009054906101000a900473ffffffffffffffffffffffffffffffffffffffff1673ffffffffffffffffffffffffffffffffffffffff166108fc849081150290604051600060405180830381858888f19350505050158015610c99573d6000803e3d6000fd5b5060005b600980549050811015610da057600060098281548110610cc057610cbf61147f565b5b9060005260206000200160009054906101000a900473ffffffffffffffffffffffffffffffffffffffff1690506000600860008373ffffffffffffffffffffffffffffffffffffffff1673ffffffffffffffffffffffffffffffffffffffff1681526020019081526020016000206000015403610d8c578073ffffffffffffffffffffffffffffffffffffffff166108fc60035486610d5f9190610ff6565b9081150290604051600060405180830381858888f19350505050158015610d8a573d6000803e3d6000fd5b505b508080610d9890611167565b915050610c9d565b506000600681905550505050565b600080fd5b600073ffffffffffffffffffffffffffffffffffffffff82169050919050565b6000610dde82610db3565b9050919050565b610dee81610dd3565b8114610df957600080fd5b50565b600081359050610e0b81610de5565b92915050565b600060208284031215610e2757610e26610dae565b5b6000610e3584828501610dfc565b91505092915050565b6000819050919050565b610e5181610e3e565b82525050565b6000602082019050610e6c6000830184610e48565b92915050565b610e7b81610dd3565b82525050565b6000602082019050610e966000830184610e72565b92915050565b610ea581610e3e565b8114610eb057600080fd5b50565b600081359050610ec281610e9c565b92915050565b600060208284031215610ede57610edd610dae565b5b6000610eec84828501610eb3565b91505092915050565b600082825260208201905092915050565b7f596f75206861766520616c726561647920636f6d706c6574656420746865207460008201527f61736b20666f722074686973207765656b000000000000000000000000000000602082015250565b6000610f62603183610ef5565b9150610f6d82610f06565b604082019050919050565b60006020820190508181036000830152610f9181610f55565b9050919050565b7f4e487b7100000000000000000000000000000000000000000000000000000000600052601260045260246000fd5b7f4e487b7100000000000000000000000000000000000000000000000000000000600052601160045260246000fd5b600061100182610e3e565b915061100c83610e3e565b92508261101c5761101b610f98565b5b828204905092915050565b600061103282610e3e565b915061103d83610e3e565b925082820390508181111561105557611054610fc7565b5b92915050565b600061106682610e3e565b915061107183610e3e565b925082820190508082111561108957611088610fc7565b5b92915050565b7f496e636f7272656374206465706f73697420616d6f756e740000000000000000600082015250565b60006110c5601883610ef5565b91506110d08261108f565b602082019050919050565b600060208201905081810360008301526110f4816110b8565b9050919050565b7f416c7265616479206a6f696e656420746865206368616c6c656e676500000000600082015250565b6000611131601c83610ef5565b915061113c826110fb565b602082019050919050565b6000602082019050818103600083015261116081611124565b9050919050565b600061117282610e3e565b91507fffffffffffffffffffffffffffffffffffffffffffffffffffffffffffffffff82036111a4576111a3610fc7565b5b600182019050919050565b7f4368616c6c656e6765206e6f7420636f6d706c6574656420666f72207468697360008201527f207765656b000000000000000000000000000000000000000000000000000000602082015250565b600061120b602583610ef5565b9150611216826111af565b604082019050919050565b6000602082019050818103600083015261123a816111fe565b9050919050565b600061124c82610e3e565b915061125783610e3e565b925082820261126581610e3e565b9150828204841483151761127c5761127b610fc7565b5b5092915050565b7f496e76616c6964207765656b206e756d62657200000000000000000000000000600082015250565b60006112b9601383610ef5565b91506112c482611283565b602082019050919050565b600060208201905081810360008301526112e8816112ac565b9050919050565b7f5461736b20666f722074686973207061727469636970616e7420616c7265616460008201527f79206d61726b656420617320636f6d706c657465640000000000000000000000602082015250565b600061134b603583610ef5565b9150611356826112ef565b604082019050919050565b6000602082019050818103600083015261137a8161133e565b9050919050565b7f4368616c6c656e6765206973206e6f74207965742066696e6973686564000000600082015250565b60006113b7601d83610ef5565b91506113c282611381565b602082019050919050565b600060208201905081810360008301526113e6816113aa565b9050919050565b7f4f6e6c7920636f6e74726163742063726561746f722063616e2064697374726960008201527f6275746520746865207472656173757279000000000000000000000000000000602082015250565b6000611449603183610ef5565b9150611454826113ed565b604082019050919050565b600060208201905081810360008301526114788161143c565b9050919050565b7f4e487b7100000000000000000000000000000000000000000000000000000000600052603260045260246000fdfea2646970667358221220ac373e7572f949bef04c896abd2c855908f93c846bd7db0972e598c63dd475d864736f6c63430008130033a2646970667358221220a150df5c86fb3c7d0ca1940cbdd1ef94ccfe7221428e65fda3446701868ae3d564736f6c63430008130033",
  "immutableReferences": {},
  "source": "// SPDX-License-Identifier: MIT\npragma solidity ^0.8.0;\n\nimport \"./Challenge.sol\";\n\ncontract ChallengeManager {\n\n    struct ChallengeInfo {\n        Challenge challenge;\n        address creator;\n    }\n\n    ChallengeInfo[] public challenges;\n\n    function createChallenge(uint256 _challengeDuration, uint256 _depositAmount) external returns (Challenge) {\n        Challenge newChallenge = new Challenge(_challengeDuration, _depositAmount);\n        ChallengeInfo memory newChallengeInfo = ChallengeInfo({\n            challenge: newChallenge,\n            creator: msg.sender\n        });\n\n        challenges.push(newChallengeInfo);\n\n        return newChallenge;\n    }\n\n    function getChallengesCount() external view returns (uint256) {\n        return challenges.length;\n    }\n\n    function getChallengeByIndex(uint256 index) external view returns (Challenge, address) {\n        require(index < challenges.length, \"Invalid index.\");\n        ChallengeInfo memory info = challenges[index];\n        return (info.challenge, info.creator);\n    }\n}\n",
  "sourcePath": "/Users/bora/experiments/linea-interchain-workshop-with-axelar/truffle/contracts/ChallengeManager.sol",
  "compiler": {
    "name": "solc",
    "version": "0.8.19+commit.7dd6d404.Emscripten.clang"
  },
  "schemaVersion": "3.4.15",
  "updatedAt": "2023-09-02T19:54:08.094Z",
  "networkType": "ethereum",
  "devdoc": {
    "kind": "dev",
    "methods": {},
    "version": 1
  },
  "userdoc": {
    "kind": "user",
    "methods": {},
    "version": 1
  }
}