{
  "contractName": "ChallengeManager",
  "abi": [
    {
      "inputs": [
        {
          "internalType": "uint256",
          "name": "",
          "type": "uint256"
        }
      ],
      "name": "challenges",
      "outputs": [
        {
          "internalType": "contract Challenge",
          "name": "challenge",
          "type": "address"
        },
        {
          "internalType": "address",
          "name": "creator",
          "type": "address"
        }
      ],
      "stateMutability": "view",
      "type": "function"
    },
    {
      "inputs": [
        {
          "internalType": "uint256",
          "name": "_challengeDuration",
          "type": "uint256"
        },
        {
          "internalType": "uint256",
          "name": "_depositAmount",
          "type": "uint256"
        }
      ],
      "name": "createChallenge",
      "outputs": [
        {
          "internalType": "contract Challenge",
          "name": "",
          "type": "address"
        }
      ],
      "stateMutability": "nonpayable",
      "type": "function"
    },
    {
      "inputs": [],
      "name": "getChallengesCount",
      "outputs": [
        {
          "internalType": "uint256",
          "name": "",
          "type": "uint256"
        }
      ],
      "stateMutability": "view",
      "type": "function"
    },
    {
      "inputs": [
        {
          "internalType": "uint256",
          "name": "index",
          "type": "uint256"
        }
      ],
      "name": "getChallengeByIndex",
      "outputs": [
        {
          "internalType": "contract Challenge",
          "name": "",
          "type": "address"
        },
        {
          "internalType": "address",
          "name": "",
          "type": "address"
        }
      ],
      "stateMutability": "view",
      "type": "function"
    }
  ],
  "bytecode": "0x608060405234801561001057600080fd5b506126bf806100206000396000f3fe60806040523480156200001157600080fd5b5060043610620000525760003560e01c806322bee07114620000575780635c2cc332146200008e57806384f6158514620000b05780638f1d377614620000e6575b600080fd5b6200007560048036038101906200006f919062000478565b6200011d565b604051620000859291906200055a565b60405180910390f35b620000986200025d565b604051620000a7919062000598565b60405180910390f35b620000ce6004803603810190620000c89190620005b5565b62000269565b604051620000dd9190620005fc565b60405180910390f35b620001046004803603810190620000fe919062000478565b620003b5565b604051620001149291906200055a565b60405180910390f35b60008060008054905083106200016a576040517f08c379a000000000000000000000000000000000000000000000000000000000815260040162000161906200067a565b60405180910390fd5b60008084815481106200018257620001816200069c565b5b90600052602060002090600202016040518060400160405290816000820160009054906101000a900473ffffffffffffffffffffffffffffffffffffffff1673ffffffffffffffffffffffffffffffffffffffff1673ffffffffffffffffffffffffffffffffffffffff1681526020016001820160009054906101000a900473ffffffffffffffffffffffffffffffffffffffff1673ffffffffffffffffffffffffffffffffffffffff1673ffffffffffffffffffffffffffffffffffffffff16815250509050806000015181602001519250925050915091565b60008080549050905090565b60008083836040516200027c906200042a565b62000289929190620006cb565b604051809103906000f080158015620002a6573d6000803e3d6000fd5b509050600060405180604001604052808373ffffffffffffffffffffffffffffffffffffffff1681526020013373ffffffffffffffffffffffffffffffffffffffff168152509050600081908060018154018082558091505060019003906000526020600020906002020160009091909190915060008201518160000160006101000a81548173ffffffffffffffffffffffffffffffffffffffff021916908373ffffffffffffffffffffffffffffffffffffffff16021790555060208201518160010160006101000a81548173ffffffffffffffffffffffffffffffffffffffff021916908373ffffffffffffffffffffffffffffffffffffffff1602179055505050819250505092915050565b60008181548110620003c657600080fd5b90600052602060002090600202016000915090508060000160009054906101000a900473ffffffffffffffffffffffffffffffffffffffff16908060010160009054906101000a900473ffffffffffffffffffffffffffffffffffffffff16905082565b611f9180620006f983390190565b600080fd5b6000819050919050565b62000452816200043d565b81146200045e57600080fd5b50565b600081359050620004728162000447565b92915050565b60006020828403121562000491576200049062000438565b5b6000620004a18482850162000461565b91505092915050565b600073ffffffffffffffffffffffffffffffffffffffff82169050919050565b6000819050919050565b6000620004f5620004ef620004e984620004aa565b620004ca565b620004aa565b9050919050565b60006200050982620004d4565b9050919050565b60006200051d82620004fc565b9050919050565b6200052f8162000510565b82525050565b60006200054282620004aa565b9050919050565b620005548162000535565b82525050565b600060408201905062000571600083018562000524565b62000580602083018462000549565b9392505050565b62000592816200043d565b82525050565b6000602082019050620005af600083018462000587565b92915050565b60008060408385031215620005cf57620005ce62000438565b5b6000620005df8582860162000461565b9250506020620005f28582860162000461565b9150509250929050565b600060208201905062000613600083018462000524565b92915050565b600082825260208201905092915050565b7f496e76616c696420696e6465782e000000000000000000000000000000000000600082015250565b600062000662600e8362000619565b91506200066f826200062a565b602082019050919050565b60006020820190508181036000830152620006958162000653565b9050919050565b7f4e487b7100000000000000000000000000000000000000000000000000000000600052603260045260246000fd5b6000604082019050620006e2600083018562000587565b620006f1602083018462000587565b939250505056fe60806040523480156200001157600080fd5b5060405162001f9138038062001f91833981810160405281019062000037919062000177565b6000821180156200005657506000600783620000549190620001ed565b145b62000098576040517f08c379a00000000000000000000000000000000000000000000000000000000081526004016200008f90620002ac565b60405180910390fd5b33600160006101000a81548173ffffffffffffffffffffffffffffffffffffffff021916908373ffffffffffffffffffffffffffffffffffffffff160217905550816002819055508060038190555033600560006101000a81548173ffffffffffffffffffffffffffffffffffffffff021916908373ffffffffffffffffffffffffffffffffffffffff160217905550426008819055505050620002ce565b600080fd5b6000819050919050565b62000151816200013c565b81146200015d57600080fd5b50565b600081519050620001718162000146565b92915050565b6000806040838503121562000191576200019062000137565b5b6000620001a18582860162000160565b9250506020620001b48582860162000160565b9150509250929050565b7f4e487b7100000000000000000000000000000000000000000000000000000000600052601260045260246000fd5b6000620001fa826200013c565b915062000207836200013c565b9250826200021a5762000219620001be565b5b828206905092915050565b600082825260208201905092915050565b7f4368616c6c656e6765206475726174696f6e2073686f756c642062652061207060008201527f6f736974697665206d756c7469706c65206f6620372064617973000000000000602082015250565b600062000294603a8362000225565b9150620002a18262000236565b604082019050919050565b60006020820190508181036000830152620002c78162000285565b9050919050565b611cb380620002de6000396000f3fe6080604052600436106101355760003560e01c8063848bc531116100ab578063a26dbf261161006f578063a26dbf261461038a578063ae169a50146103b5578063bc3fde4e146103de578063d159876c14610409578063e1e2955814610434578063e94b375e1461045d57610135565b8063848bc531146102e857806385f88c6a146103135780638942d0b31461033e57806389cbbc69146103485780639b5655dc1461035f57610135565b80632e3df5df116100fd5780632e3df5df14610210578063313dab20146102395780633f17145a14610264578063419759f51461027b5780634b38ff3f146102a657806362633874146102bd57610135565b806309e69ede1461013a5780631e2f73b11461017857806324d2a713146101a3578063292f2e0e146101ce5780632c81911f146101f9575b600080fd5b34801561014657600080fd5b50610161600480360381019061015c9190611456565b61049a565b60405161016f92919061149c565b60405180910390f35b34801561018457600080fd5b5061018d6104be565b60405161019a91906114d4565b60405180910390f35b3480156101af57600080fd5b506101b86104e4565b6040516101c591906114ef565b60405180910390f35b3480156101da57600080fd5b506101e36104ea565b6040516101f091906114ef565b60405180910390f35b34801561020557600080fd5b5061020e6104f0565b005b34801561021c57600080fd5b5061023760048036038101906102329190611536565b6106ae565b005b34801561024557600080fd5b5061024e61085d565b60405161025b91906114ef565b60405180910390f35b34801561027057600080fd5b50610279610863565b005b34801561028757600080fd5b50610290610a28565b60405161029d91906114ef565b60405180910390f35b3480156102b257600080fd5b506102bb610a2e565b005b3480156102c957600080fd5b506102d2610bbd565b6040516102df91906114ef565b60405180910390f35b3480156102f457600080fd5b506102fd610bc3565b60405161030a91906114ef565b60405180910390f35b34801561031f57600080fd5b50610328610bc9565b60405161033591906114ef565b60405180910390f35b610346610bd3565b005b34801561035457600080fd5b5061035d610d7b565b005b34801561036b57600080fd5b50610374610f79565b60405161038191906114ef565b60405180910390f35b34801561039657600080fd5b5061039f610f83565b6040516103ac91906114ef565b60405180910390f35b3480156103c157600080fd5b506103dc60048036038101906103d79190611536565b610f89565b005b3480156103ea57600080fd5b506103f36111a2565b60405161040091906114ef565b60405180910390f35b34801561041557600080fd5b5061041e6111d5565b60405161042b91906114d4565b60405180910390f35b34801561044057600080fd5b5061045b60048036038101906104569190611536565b6111fb565b005b34801561046957600080fd5b50610484600480360381019061047f9190611536565b61135c565b60405161049191906114d4565b60405180910390f35b60096020528060005260406000206000915090508060000154908060010154905082565b600560009054906101000a900473ffffffffffffffffffffffffffffffffffffffff1681565b60085481565b60025481565b600560009054906101000a900473ffffffffffffffffffffffffffffffffffffffff1673ffffffffffffffffffffffffffffffffffffffff163373ffffffffffffffffffffffffffffffffffffffff1614610580576040517f08c379a0000000000000000000000000000000000000000000000000000000008152600401610577906115e6565b60405180910390fd5b6105886111a2565b4210156105ca576040517f08c379a00000000000000000000000000000000000000000000000000000000081526004016105c190611652565b60405180910390fd5b600060646105e4601460075461139b90919063ffffffff16565b6105ee91906116d0565b9050610605816007546113b190919063ffffffff16565b600781905550600560009054906101000a900473ffffffffffffffffffffffffffffffffffffffff1673ffffffffffffffffffffffffffffffffffffffff166108fc829081150290604051600060405180830381858888f19350505050158015610673573d6000803e3d6000fd5b507f3e67a9f90760cd7b65daabbba6cad62df652a7b91c698fd52d604817746f589f816040516106a391906114ef565b60405180910390a150565b600960003373ffffffffffffffffffffffffffffffffffffffff1673ffffffffffffffffffffffffffffffffffffffff168152602001908152602001600020600201600082815260200190815260200160002060009054906101000a900460ff161561074f576040517f08c379a000000000000000000000000000000000000000000000000000000000815260040161074690611773565b60405180910390fd5b6000600254600960003373ffffffffffffffffffffffffffffffffffffffff1673ffffffffffffffffffffffffffffffffffffffff168152602001908152602001600020600001546107a191906116d0565b90506107f881600960003373ffffffffffffffffffffffffffffffffffffffff1673ffffffffffffffffffffffffffffffffffffffff168152602001908152602001600020600001546113b190919063ffffffff16565b600960003373ffffffffffffffffffffffffffffffffffffffff1673ffffffffffffffffffffffffffffffffffffffff16815260200190815260200160002060000181905550610853816007546113c790919063ffffffff16565b6007819055505050565b60065481565b600160009054906101000a900473ffffffffffffffffffffffffffffffffffffffff1673ffffffffffffffffffffffffffffffffffffffff163373ffffffffffffffffffffffffffffffffffffffff16146108f3576040517f08c379a00000000000000000000000000000000000000000000000000000000081526004016108ea90611805565b60405180910390fd5b6108fb6111a2565b42101561093d576040517f08c379a000000000000000000000000000000000000000000000000000000000815260040161093490611652565b60405180910390fd5b6000610968606461095a601460075461139b90919063ffffffff16565b6113dd90919063ffffffff16565b905061097f816007546113b190919063ffffffff16565b600781905550600160009054906101000a900473ffffffffffffffffffffffffffffffffffffffff1673ffffffffffffffffffffffffffffffffffffffff166108fc829081150290604051600060405180830381858888f193505050501580156109ed573d6000803e3d6000fd5b507fb46f43c17c23b1584431a37a4e630252582e30dd422f40016c6e87f60ca65d0881604051610a1d91906114ef565b60405180910390a150565b60035481565b600062093a8060085442610a429190611825565b610a4c91906116d0565b9050600960003373ffffffffffffffffffffffffffffffffffffffff1673ffffffffffffffffffffffffffffffffffffffff168152602001908152602001600020600201600082815260200190815260200160002060009054906101000a900460ff1615610aef576040517f08c379a0000000000000000000000000000000000000000000000000000000008152600401610ae690611773565b60405180910390fd5b6000600254600354610b0191906116d0565b9050610b5881600960003373ffffffffffffffffffffffffffffffffffffffff1673ffffffffffffffffffffffffffffffffffffffff168152602001908152602001600020600001546113b190919063ffffffff16565b600960003373ffffffffffffffffffffffffffffffffffffffff1673ffffffffffffffffffffffffffffffffffffffff16815260200190815260200160002060000181905550610bb3816007546113c790919063ffffffff16565b6007819055505050565b60075481565b60005481565b6000600754905090565b6003543414610c17576040517f08c379a0000000000000000000000000000000000000000000000000000000008152600401610c0e906118a5565b60405180910390fd5b6000600960003373ffffffffffffffffffffffffffffffffffffffff1673ffffffffffffffffffffffffffffffffffffffff1681526020019081526020016000206000015414610c9c576040517f08c379a0000000000000000000000000000000000000000000000000000000008152600401610c9390611911565b60405180910390fd5b34600960003373ffffffffffffffffffffffffffffffffffffffff1673ffffffffffffffffffffffffffffffffffffffff16815260200190815260200160002060000181905550610cf8346006546113c790919063ffffffff16565b600681905550600a339080600181540180825580915050600190039060005260206000200160009091909190916101000a81548173ffffffffffffffffffffffffffffffffffffffff021916908373ffffffffffffffffffffffffffffffffffffffff16021790555060046000815480929190610d7490611931565b9190505550565b610d836111a2565b421015610dc5576040517f08c379a0000000000000000000000000000000000000000000000000000000008152600401610dbc90611652565b60405180910390fd5b6000600960003373ffffffffffffffffffffffffffffffffffffffff1673ffffffffffffffffffffffffffffffffffffffff1681526020019081526020016000206001015414610e4a576040517f08c379a0000000000000000000000000000000000000000000000000000000008152600401610e41906119c5565b60405180910390fd5b6000610e76600454610e68603c60075461139b90919063ffffffff16565b6113dd90919063ffffffff16565b9050610e8d816007546113b190919063ffffffff16565b60078190555060008190506000600960003373ffffffffffffffffffffffffffffffffffffffff1673ffffffffffffffffffffffffffffffffffffffff168152602001908152602001600020600101819055503373ffffffffffffffffffffffffffffffffffffffff166108fc829081150290604051600060405180830381858888f19350505050158015610f26573d6000803e3d6000fd5b503373ffffffffffffffffffffffffffffffffffffffff167f9363eb2c43f20e2497b6b6196695e81372e03f7402ff04c0479a0b611fb50df982604051610f6d91906114ef565b60405180910390a25050565b6000600654905090565b60045481565b600960003373ffffffffffffffffffffffffffffffffffffffff1673ffffffffffffffffffffffffffffffffffffffff168152602001908152602001600020600201600082815260200190815260200160002060009054906101000a900460ff16611029576040517f08c379a000000000000000000000000000000000000000000000000000000000815260040161102090611a57565b60405180910390fd5b600062093a806008544261103d9190611825565b61104791906116d0565b90508082111561108c576040517f08c379a000000000000000000000000000000000000000000000000000000000815260040161108390611ae9565b60405180910390fd5b600060025460035461109e91906116d0565b90506110f581600960003373ffffffffffffffffffffffffffffffffffffffff1673ffffffffffffffffffffffffffffffffffffffff168152602001908152602001600020600001546113b190919063ffffffff16565b600960003373ffffffffffffffffffffffffffffffffffffffff1673ffffffffffffffffffffffffffffffffffffffff16815260200190815260200160002060000181905550611150816006546113b190919063ffffffff16565b6006819055503373ffffffffffffffffffffffffffffffffffffffff166108fc829081150290604051600060405180830381858888f1935050505015801561119c573d6000803e3d6000fd5b50505050565b60006111d06111bf6201518060025461139b90919063ffffffff16565b6008546113c790919063ffffffff16565b905090565b600160009054906101000a900473ffffffffffffffffffffffffffffffffffffffff1681565b600760025461120a91906116d0565b81111561124c576040517f08c379a000000000000000000000000000000000000000000000000000000000815260040161124390611b55565b60405180910390fd5b600960003373ffffffffffffffffffffffffffffffffffffffff1673ffffffffffffffffffffffffffffffffffffffff168152602001908152602001600020600201600082815260200190815260200160002060009054906101000a900460ff16156112ed576040517f08c379a00000000000000000000000000000000000000000000000000000000081526004016112e490611be7565b60405180910390fd5b6001600960003373ffffffffffffffffffffffffffffffffffffffff1673ffffffffffffffffffffffffffffffffffffffff168152602001908152602001600020600201600083815260200190815260200160002060006101000a81548160ff02191690831515021790555050565b600a818154811061136c57600080fd5b906000526020600020016000915054906101000a900473ffffffffffffffffffffffffffffffffffffffff1681565b600081836113a99190611c07565b905092915050565b600081836113bf9190611825565b905092915050565b600081836113d59190611c49565b905092915050565b600081836113eb91906116d0565b905092915050565b600080fd5b600073ffffffffffffffffffffffffffffffffffffffff82169050919050565b6000611423826113f8565b9050919050565b61143381611418565b811461143e57600080fd5b50565b6000813590506114508161142a565b92915050565b60006020828403121561146c5761146b6113f3565b5b600061147a84828501611441565b91505092915050565b6000819050919050565b61149681611483565b82525050565b60006040820190506114b1600083018561148d565b6114be602083018461148d565b9392505050565b6114ce81611418565b82525050565b60006020820190506114e960008301846114c5565b92915050565b6000602082019050611504600083018461148d565b92915050565b61151381611483565b811461151e57600080fd5b50565b6000813590506115308161150a565b92915050565b60006020828403121561154c5761154b6113f3565b5b600061155a84828501611521565b91505092915050565b600082825260208201905092915050565b7f4f6e6c7920636f6e74726163742063726561746f722063616e20636c61696d2060008201527f7468652072657761726400000000000000000000000000000000000000000000602082015250565b60006115d0602a83611563565b91506115db82611574565b604082019050919050565b600060208201905081810360008301526115ff816115c3565b9050919050565b7f4368616c6c656e6765206973206e6f74207965742066696e6973686564000000600082015250565b600061163c601d83611563565b915061164782611606565b602082019050919050565b6000602082019050818103600083015261166b8161162f565b9050919050565b7f4e487b7100000000000000000000000000000000000000000000000000000000600052601260045260246000fd5b7f4e487b7100000000000000000000000000000000000000000000000000000000600052601160045260246000fd5b60006116db82611483565b91506116e683611483565b9250826116f6576116f5611672565b5b828204905092915050565b7f596f75206861766520616c726561647920636f6d706c6574656420746865207460008201527f61736b20666f722074686973207765656b000000000000000000000000000000602082015250565b600061175d603183611563565b915061176882611701565b604082019050919050565b6000602082019050818103600083015261178c81611750565b9050919050565b7f4f6e6c79206368616c6c656e67652063726561746f722063616e20636c61696d60008201527f2074686520726577617264000000000000000000000000000000000000000000602082015250565b60006117ef602b83611563565b91506117fa82611793565b604082019050919050565b6000602082019050818103600083015261181e816117e2565b9050919050565b600061183082611483565b915061183b83611483565b9250828203905081811115611853576118526116a1565b5b92915050565b7f496e636f7272656374206465706f73697420616d6f756e740000000000000000600082015250565b600061188f601883611563565b915061189a82611859565b602082019050919050565b600060208201905081810360008301526118be81611882565b9050919050565b7f416c7265616479206a6f696e656420746865206368616c6c656e676500000000600082015250565b60006118fb601c83611563565b9150611906826118c5565b602082019050919050565b6000602082019050818103600083015261192a816118ee565b9050919050565b600061193c82611483565b91507fffffffffffffffffffffffffffffffffffffffffffffffffffffffffffffffff820361196e5761196d6116a1565b5b600182019050919050565b7f52657761726420616c726561647920636c61696d656400000000000000000000600082015250565b60006119af601683611563565b91506119ba82611979565b602082019050919050565b600060208201905081810360008301526119de816119a2565b9050919050565b7f4368616c6c656e6765206e6f7420636f6d706c6574656420666f72207468697360008201527f207765656b000000000000000000000000000000000000000000000000000000602082015250565b6000611a41602583611563565b9150611a4c826119e5565b604082019050919050565b60006020820190508181036000830152611a7081611a34565b9050919050565b7f43616e6e6f7420636c61696d2072657761726420666f7220667574757265207760008201527f65656b7300000000000000000000000000000000000000000000000000000000602082015250565b6000611ad3602483611563565b9150611ade82611a77565b604082019050919050565b60006020820190508181036000830152611b0281611ac6565b9050919050565b7f496e76616c6964207765656b206e756d62657200000000000000000000000000600082015250565b6000611b3f601383611563565b9150611b4a82611b09565b602082019050919050565b60006020820190508181036000830152611b6e81611b32565b9050919050565b7f5461736b20666f722074686973207061727469636970616e7420616c7265616460008201527f79206d61726b656420617320636f6d706c657465640000000000000000000000602082015250565b6000611bd1603583611563565b9150611bdc82611b75565b604082019050919050565b60006020820190508181036000830152611c0081611bc4565b9050919050565b6000611c1282611483565b9150611c1d83611483565b9250828202611c2b81611483565b91508282048414831517611c4257611c416116a1565b5b5092915050565b6000611c5482611483565b9150611c5f83611483565b9250828201905080821115611c7757611c766116a1565b5b9291505056fea26469706673582212204c4c40d2d649794098f08cd695d8b2d79e800a29f045bd5f34d842984d1ab5f064736f6c63430008130033a26469706673582212204eeff8129204eedf068dcc228ef24e524c3e39bc65b9f2cf2257ccaf1f52ad3364736f6c63430008130033",
  "immutableReferences": {},
  "source": "// SPDX-License-Identifier: MIT\npragma solidity ^0.8.0;\n\nimport \"./Challenge.sol\";\n\ncontract ChallengeManager {\n\n    struct ChallengeInfo {\n        Challenge challenge;\n        address creator;\n    }\n\n    ChallengeInfo[] public challenges;\n\n    function createChallenge(uint256 _challengeDuration, uint256 _depositAmount) external returns (Challenge) {\n        Challenge newChallenge = new Challenge(_challengeDuration, _depositAmount);\n        ChallengeInfo memory newChallengeInfo = ChallengeInfo({\n            challenge: newChallenge,\n            creator: msg.sender\n        });\n\n        challenges.push(newChallengeInfo);\n\n        return newChallenge;\n    }\n\n    function getChallengesCount() external view returns (uint256) {\n        return challenges.length;\n    }\n\n    function getChallengeByIndex(uint256 index) external view returns (Challenge, address) {\n        require(index < challenges.length, \"Invalid index.\");\n        ChallengeInfo memory info = challenges[index];\n        return (info.challenge, info.creator);\n    }\n}\n",
  "sourcePath": "/Users/bora/experiments/linea-interchain-workshop-with-axelar/truffle/contracts/ChallengeManager.sol",
  "compiler": {
    "name": "solc",
    "version": "0.8.19+commit.7dd6d404.Emscripten.clang"
  },
  "schemaVersion": "3.4.15",
  "updatedAt": "2023-09-02T22:59:43.808Z",
  "networkType": "ethereum",
  "devdoc": {
    "kind": "dev",
    "methods": {},
    "version": 1
  },
  "userdoc": {
    "kind": "user",
    "methods": {},
    "version": 1
  }
}