{
  "contractName": "ERC20CrossChain",
  "abi": [
    {
      "inputs": [
        {
          "internalType": "address",
          "name": "gateway_",
          "type": "address"
        },
        {
          "internalType": "address",
          "name": "gasReceiver_",
          "type": "address"
        },
        {
          "internalType": "uint8",
          "name": "decimals_",
          "type": "uint8"
        }
      ],
      "stateMutability": "nonpayable",
      "type": "constructor"
    },
    {
      "inputs": [],
      "name": "AlreadyInitialized",
      "type": "error"
    },
    {
      "inputs": [],
      "name": "InvalidAccount",
      "type": "error"
    },
    {
      "inputs": [],
      "name": "InvalidAddress",
      "type": "error"
    },
    {
      "inputs": [],
      "name": "InvalidAddressString",
      "type": "error"
    },
    {
      "inputs": [],
      "name": "InvalidCodeHash",
      "type": "error"
    },
    {
      "inputs": [],
      "name": "InvalidImplementation",
      "type": "error"
    },
    {
      "inputs": [],
      "name": "InvalidOwner",
      "type": "error"
    },
    {
      "inputs": [],
      "name": "InvalidOwnerAddress",
      "type": "error"
    },
    {
      "inputs": [],
      "name": "NotApprovedByGateway",
      "type": "error"
    },
    {
      "inputs": [],
      "name": "NotOwner",
      "type": "error"
    },
    {
      "inputs": [],
      "name": "NotProxy",
      "type": "error"
    },
    {
      "inputs": [],
      "name": "SetupFailed",
      "type": "error"
    },
    {
      "anonymous": false,
      "inputs": [
        {
          "indexed": true,
          "internalType": "address",
          "name": "owner",
          "type": "address"
        },
        {
          "indexed": true,
          "internalType": "address",
          "name": "spender",
          "type": "address"
        },
        {
          "indexed": false,
          "internalType": "uint256",
          "name": "value",
          "type": "uint256"
        }
      ],
      "name": "Approval",
      "type": "event"
    },
    {
      "anonymous": false,
      "inputs": [
        {
          "indexed": false,
          "internalType": "string",
          "name": "sourceChain",
          "type": "string"
        },
        {
          "indexed": false,
          "internalType": "string",
          "name": "sourceAddress",
          "type": "string"
        }
      ],
      "name": "FalseSender",
      "type": "event"
    },
    {
      "anonymous": false,
      "inputs": [
        {
          "indexed": true,
          "internalType": "address",
          "name": "newOwner",
          "type": "address"
        }
      ],
      "name": "OwnershipTransferStarted",
      "type": "event"
    },
    {
      "anonymous": false,
      "inputs": [
        {
          "indexed": true,
          "internalType": "address",
          "name": "newOwner",
          "type": "address"
        }
      ],
      "name": "OwnershipTransferred",
      "type": "event"
    },
    {
      "anonymous": false,
      "inputs": [
        {
          "indexed": true,
          "internalType": "address",
          "name": "from",
          "type": "address"
        },
        {
          "indexed": true,
          "internalType": "address",
          "name": "to",
          "type": "address"
        },
        {
          "indexed": false,
          "internalType": "uint256",
          "name": "value",
          "type": "uint256"
        }
      ],
      "name": "Transfer",
      "type": "event"
    },
    {
      "anonymous": false,
      "inputs": [
        {
          "indexed": true,
          "internalType": "address",
          "name": "newImplementation",
          "type": "address"
        }
      ],
      "name": "Upgraded",
      "type": "event"
    },
    {
      "inputs": [],
      "name": "acceptOwnership",
      "outputs": [],
      "stateMutability": "nonpayable",
      "type": "function"
    },
    {
      "inputs": [
        {
          "internalType": "address",
          "name": "",
          "type": "address"
        },
        {
          "internalType": "address",
          "name": "",
          "type": "address"
        }
      ],
      "name": "allowance",
      "outputs": [
        {
          "internalType": "uint256",
          "name": "",
          "type": "uint256"
        }
      ],
      "stateMutability": "view",
      "type": "function",
      "constant": true
    },
    {
      "inputs": [
        {
          "internalType": "address",
          "name": "spender",
          "type": "address"
        },
        {
          "internalType": "uint256",
          "name": "amount",
          "type": "uint256"
        }
      ],
      "name": "approve",
      "outputs": [
        {
          "internalType": "bool",
          "name": "",
          "type": "bool"
        }
      ],
      "stateMutability": "nonpayable",
      "type": "function"
    },
    {
      "inputs": [
        {
          "internalType": "address",
          "name": "",
          "type": "address"
        }
      ],
      "name": "balanceOf",
      "outputs": [
        {
          "internalType": "uint256",
          "name": "",
          "type": "uint256"
        }
      ],
      "stateMutability": "view",
      "type": "function",
      "constant": true
    },
    {
      "inputs": [],
      "name": "decimals",
      "outputs": [
        {
          "internalType": "uint8",
          "name": "",
          "type": "uint8"
        }
      ],
      "stateMutability": "view",
      "type": "function",
      "constant": true
    },
    {
      "inputs": [
        {
          "internalType": "address",
          "name": "spender",
          "type": "address"
        },
        {
          "internalType": "uint256",
          "name": "subtractedValue",
          "type": "uint256"
        }
      ],
      "name": "decreaseAllowance",
      "outputs": [
        {
          "internalType": "bool",
          "name": "",
          "type": "bool"
        }
      ],
      "stateMutability": "nonpayable",
      "type": "function"
    },
    {
      "inputs": [
        {
          "internalType": "bytes32",
          "name": "commandId",
          "type": "bytes32"
        },
        {
          "internalType": "string",
          "name": "sourceChain",
          "type": "string"
        },
        {
          "internalType": "string",
          "name": "sourceAddress",
          "type": "string"
        },
        {
          "internalType": "bytes",
          "name": "payload",
          "type": "bytes"
        }
      ],
      "name": "execute",
      "outputs": [],
      "stateMutability": "nonpayable",
      "type": "function"
    },
    {
      "inputs": [
        {
          "internalType": "bytes32",
          "name": "commandId",
          "type": "bytes32"
        },
        {
          "internalType": "string",
          "name": "sourceChain",
          "type": "string"
        },
        {
          "internalType": "string",
          "name": "sourceAddress",
          "type": "string"
        },
        {
          "internalType": "bytes",
          "name": "payload",
          "type": "bytes"
        },
        {
          "internalType": "string",
          "name": "tokenSymbol",
          "type": "string"
        },
        {
          "internalType": "uint256",
          "name": "amount",
          "type": "uint256"
        }
      ],
      "name": "executeWithToken",
      "outputs": [],
      "stateMutability": "nonpayable",
      "type": "function"
    },
    {
      "inputs": [],
      "name": "gasService",
      "outputs": [
        {
          "internalType": "contract IAxelarGasService",
          "name": "",
          "type": "address"
        }
      ],
      "stateMutability": "view",
      "type": "function",
      "constant": true
    },
    {
      "inputs": [],
      "name": "gateway",
      "outputs": [
        {
          "internalType": "contract IAxelarGateway",
          "name": "",
          "type": "address"
        }
      ],
      "stateMutability": "view",
      "type": "function",
      "constant": true
    },
    {
      "inputs": [],
      "name": "implementation",
      "outputs": [
        {
          "internalType": "address",
          "name": "implementation_",
          "type": "address"
        }
      ],
      "stateMutability": "view",
      "type": "function",
      "constant": true
    },
    {
      "inputs": [
        {
          "internalType": "address",
          "name": "spender",
          "type": "address"
        },
        {
          "internalType": "uint256",
          "name": "addedValue",
          "type": "uint256"
        }
      ],
      "name": "increaseAllowance",
      "outputs": [
        {
          "internalType": "bool",
          "name": "",
          "type": "bool"
        }
      ],
      "stateMutability": "nonpayable",
      "type": "function"
    },
    {
      "inputs": [],
      "name": "name",
      "outputs": [
        {
          "internalType": "string",
          "name": "",
          "type": "string"
        }
      ],
      "stateMutability": "view",
      "type": "function",
      "constant": true
    },
    {
      "inputs": [],
      "name": "owner",
      "outputs": [
        {
          "internalType": "address",
          "name": "owner_",
          "type": "address"
        }
      ],
      "stateMutability": "view",
      "type": "function",
      "constant": true
    },
    {
      "inputs": [],
      "name": "pendingOwner",
      "outputs": [
        {
          "internalType": "address",
          "name": "owner_",
          "type": "address"
        }
      ],
      "stateMutability": "view",
      "type": "function",
      "constant": true
    },
    {
      "inputs": [
        {
          "internalType": "address",
          "name": "newOwner",
          "type": "address"
        }
      ],
      "name": "proposeOwnership",
      "outputs": [],
      "stateMutability": "nonpayable",
      "type": "function"
    },
    {
      "inputs": [
        {
          "internalType": "bytes",
          "name": "data",
          "type": "bytes"
        }
      ],
      "name": "setup",
      "outputs": [],
      "stateMutability": "nonpayable",
      "type": "function"
    },
    {
      "inputs": [],
      "name": "symbol",
      "outputs": [
        {
          "internalType": "string",
          "name": "",
          "type": "string"
        }
      ],
      "stateMutability": "view",
      "type": "function",
      "constant": true
    },
    {
      "inputs": [],
      "name": "totalSupply",
      "outputs": [
        {
          "internalType": "uint256",
          "name": "",
          "type": "uint256"
        }
      ],
      "stateMutability": "view",
      "type": "function",
      "constant": true
    },
    {
      "inputs": [
        {
          "internalType": "address",
          "name": "recipient",
          "type": "address"
        },
        {
          "internalType": "uint256",
          "name": "amount",
          "type": "uint256"
        }
      ],
      "name": "transfer",
      "outputs": [
        {
          "internalType": "bool",
          "name": "",
          "type": "bool"
        }
      ],
      "stateMutability": "nonpayable",
      "type": "function"
    },
    {
      "inputs": [
        {
          "internalType": "address",
          "name": "sender",
          "type": "address"
        },
        {
          "internalType": "address",
          "name": "recipient",
          "type": "address"
        },
        {
          "internalType": "uint256",
          "name": "amount",
          "type": "uint256"
        }
      ],
      "name": "transferFrom",
      "outputs": [
        {
          "internalType": "bool",
          "name": "",
          "type": "bool"
        }
      ],
      "stateMutability": "nonpayable",
      "type": "function"
    },
    {
      "inputs": [
        {
          "internalType": "address",
          "name": "newOwner",
          "type": "address"
        }
      ],
      "name": "transferOwnership",
      "outputs": [],
      "stateMutability": "nonpayable",
      "type": "function"
    },
    {
      "inputs": [
        {
          "internalType": "address",
          "name": "newImplementation",
          "type": "address"
        },
        {
          "internalType": "bytes32",
          "name": "newImplementationCodeHash",
          "type": "bytes32"
        },
        {
          "internalType": "bytes",
          "name": "params",
          "type": "bytes"
        }
      ],
      "name": "upgrade",
      "outputs": [],
      "stateMutability": "nonpayable",
      "type": "function"
    },
    {
      "inputs": [
        {
          "internalType": "uint256",
          "name": "amount",
          "type": "uint256"
        }
      ],
      "name": "giveMe",
      "outputs": [],
      "stateMutability": "nonpayable",
      "type": "function"
    },
    {
      "inputs": [
        {
          "internalType": "string",
          "name": "destinationChain",
          "type": "string"
        },
        {
          "internalType": "address",
          "name": "destinationAddress",
          "type": "address"
        },
        {
          "internalType": "uint256",
          "name": "amount",
          "type": "uint256"
        }
      ],
      "name": "transferRemote",
      "outputs": [],
      "stateMutability": "payable",
      "type": "function",
      "payable": true
    },
    {
      "inputs": [],
      "name": "contractId",
      "outputs": [
        {
          "internalType": "bytes32",
          "name": "",
          "type": "bytes32"
        }
      ],
      "stateMutability": "pure",
      "type": "function",
      "constant": true
    }
  ],
  "bytecode": "0x6101006040523480156200001257600080fd5b50604051620039fb380380620039fb83398181016040528101906200003891906200040c565b600160405180602001604052806000815250604051806020016040528060008152508386600073ffffffffffffffffffffffffffffffffffffffff168173ffffffffffffffffffffffffffffffffffffffff161415620000c4576040517fe6c4247b00000000000000000000000000000000000000000000000000000000815260040160405180910390fd5b8073ffffffffffffffffffffffffffffffffffffffff1660808173ffffffffffffffffffffffffffffffffffffffff168152505050826003908051906020019062000111929190620002b4565b5081600490805190602001906200012a929190620002b4565b508060ff1660a08160ff16815250505050506200014d81620001bf60201b60201c565b503073ffffffffffffffffffffffffffffffffffffffff1660c08173ffffffffffffffffffffffffffffffffffffffff16815250508173ffffffffffffffffffffffffffffffffffffffff1660e08173ffffffffffffffffffffffffffffffffffffffff1681525050505050620004cd565b600073ffffffffffffffffffffffffffffffffffffffff168173ffffffffffffffffffffffffffffffffffffffff16141562000227576040517fd924e5f400000000000000000000000000000000000000000000000000000000815260040160405180910390fd5b8073ffffffffffffffffffffffffffffffffffffffff167f04dba622d284ed0014ee4b9a6a68386be1a4c08a4913ae272de89199cc68616360405160405180910390a2807f02016836a56b71f0d02689e69e326f4f4c1b9057164ef592671cf0d37c8040c05560007f9855384122b55936fbfb8ca5120e63c6537a1ac40caf6ae33502b3c5da8c87d15550565b828054620002c29062000497565b90600052602060002090601f016020900481019282620002e6576000855562000332565b82601f106200030157805160ff191683800117855562000332565b8280016001018555821562000332579182015b828111156200033157825182559160200191906001019062000314565b5b50905062000341919062000345565b5090565b5b808211156200036057600081600090555060010162000346565b5090565b600080fd5b600073ffffffffffffffffffffffffffffffffffffffff82169050919050565b6000620003968262000369565b9050919050565b620003a88162000389565b8114620003b457600080fd5b50565b600081519050620003c8816200039d565b92915050565b600060ff82169050919050565b620003e681620003ce565b8114620003f257600080fd5b50565b6000815190506200040681620003db565b92915050565b60008060006060848603121562000428576200042762000364565b5b60006200043886828701620003b7565b93505060206200044b86828701620003b7565b92505060406200045e86828701620003f5565b9150509250925092565b7f4e487b7100000000000000000000000000000000000000000000000000000000600052602260045260246000fd5b60006002820490506001821680620004b057607f821691505b60208210811415620004c757620004c662000468565b5b50919050565b60805160a05160c05160e0516134d86200052360003960008181610b880152610ce001526000610fb4015260006109040152600081816106d80152818161071e015281816109ef0152610c1e01526134d86000f3fe6080604052600436106101815760003560e01c806370a08231116100d15780639ded06df1161008a578063a9059cbb11610064578063a9059cbb14610563578063dd62ed3e146105a0578063e30c3978146105dd578063f2fde38b1461060857610181565b80639ded06df146104d4578063a3499c73146104fd578063a457c2d71461052657610181565b806370a08231146103d6578063710bf3221461041357806379ba50971461043c5780638291286c146104535780638da5cb5b1461047e57806395d89b41146104a957610181565b8063313ce5671161013e5780634916065811610118578063491606581461033b57806355d55dc1146103645780635c60da1b146103805780636a22d8cc146103ab57610181565b8063313ce567146102aa57806339509351146102d557806344dee17f1461031257610181565b806306fdde0314610186578063095ea7b3146101b1578063116191b6146101ee57806318160ddd146102195780631a98b2e01461024457806323b872dd1461026d575b600080fd5b34801561019257600080fd5b5061019b610631565b6040516101a89190612408565b60405180910390f35b3480156101bd57600080fd5b506101d860048036038101906101d391906124d2565b6106bf565b6040516101e5919061252d565b60405180910390f35b3480156101fa57600080fd5b506102036106d6565b60405161021091906125a7565b60405180910390f35b34801561022557600080fd5b5061022e6106fa565b60405161023b91906125d1565b60405180910390f35b34801561025057600080fd5b5061026b600480360381019061026691906126dd565b610700565b005b34801561027957600080fd5b50610294600480360381019061028f91906127ed565b61082b565b6040516102a1919061252d565b60405180910390f35b3480156102b657600080fd5b506102bf610902565b6040516102cc919061285c565b60405180910390f35b3480156102e157600080fd5b506102fc60048036038101906102f791906124d2565b610926565b604051610309919061252d565b60405180910390f35b34801561031e57600080fd5b5061033960048036038101906103349190612877565b6109c4565b005b34801561034757600080fd5b50610362600480360381019061035d91906128a4565b6109d1565b005b61037e6004803603810190610379919061296d565b610af0565b005b34801561038c57600080fd5b50610395610cb5565b6040516103a291906129f0565b60405180910390f35b3480156103b757600080fd5b506103c0610cde565b6040516103cd9190612a2c565b60405180910390f35b3480156103e257600080fd5b506103fd60048036038101906103f89190612a47565b610d02565b60405161040a91906125d1565b60405180910390f35b34801561041f57600080fd5b5061043a60048036038101906104359190612a47565b610d1a565b005b34801561044857600080fd5b50610451610e56565b005b34801561045f57600080fd5b50610468610ed3565b6040516104759190612a83565b60405180910390f35b34801561048a57600080fd5b50610493610efb565b6040516104a091906129f0565b60405180910390f35b3480156104b557600080fd5b506104be610f24565b6040516104cb9190612408565b60405180910390f35b3480156104e057600080fd5b506104fb60048036038101906104f69190612a9e565b610fb2565b005b34801561050957600080fd5b50610524600480360381019061051f9190612aeb565b611046565b005b34801561053257600080fd5b5061054d600480360381019061054891906124d2565b6113c8565b60405161055a919061252d565b60405180910390f35b34801561056f57600080fd5b5061058a600480360381019061058591906124d2565b611466565b604051610597919061252d565b60405180910390f35b3480156105ac57600080fd5b506105c760048036038101906105c29190612b5f565b61147d565b6040516105d491906125d1565b60405180910390f35b3480156105e957600080fd5b506105f26114a2565b6040516105ff91906129f0565b60405180910390f35b34801561061457600080fd5b5061062f600480360381019061062a9190612a47565b6114cb565b005b6003805461063e90612bce565b80601f016020809104026020016040519081016040528092919081815260200182805461066a90612bce565b80156106b75780601f1061068c576101008083540402835291602001916106b7565b820191906000526020600020905b81548152906001019060200180831161069a57829003601f168201915b505050505081565b60006106cc338484611543565b6001905092915050565b7f000000000000000000000000000000000000000000000000000000000000000081565b60025481565b60008585604051610712929190612c3f565b604051809103902090507f000000000000000000000000000000000000000000000000000000000000000073ffffffffffffffffffffffffffffffffffffffff16631876eed98c8c8c8c8c878b8b8b6040518a63ffffffff1660e01b815260040161078599989796959493929190612c85565b602060405180830381600087803b15801561079f57600080fd5b505af11580156107b3573d6000803e3d6000fd5b505050506040513d601f19601f820116820180604052508101906107d79190612d2d565b61080d576040517f500c44b400000000000000000000000000000000000000000000000000000000815260040160405180910390fd5b61081e8a8a8a8a8a8a8a8a8a6116cc565b5050505050505050505050565b600080600160008673ffffffffffffffffffffffffffffffffffffffff1673ffffffffffffffffffffffffffffffffffffffff16815260200190815260200160002060003373ffffffffffffffffffffffffffffffffffffffff1673ffffffffffffffffffffffffffffffffffffffff1681526020019081526020016000205490507fffffffffffffffffffffffffffffffffffffffffffffffffffffffffffffffff81146108eb576108ea853385846108e59190612d89565b611543565b5b6108f68585856116d7565b60019150509392505050565b7f000000000000000000000000000000000000000000000000000000000000000081565b60006109ba338484600160003373ffffffffffffffffffffffffffffffffffffffff1673ffffffffffffffffffffffffffffffffffffffff16815260200190815260200160002060008873ffffffffffffffffffffffffffffffffffffffff1673ffffffffffffffffffffffffffffffffffffffff168152602001908152602001600020546109b59190612dbd565b611543565b6001905092915050565b6109ce3382611889565b50565b600082826040516109e3929190612c3f565b604051809103902090507f000000000000000000000000000000000000000000000000000000000000000073ffffffffffffffffffffffffffffffffffffffff16635f6970c38989898989876040518763ffffffff1660e01b8152600401610a5096959493929190612e13565b602060405180830381600087803b158015610a6a57600080fd5b505af1158015610a7e573d6000803e3d6000fd5b505050506040513d601f19601f82011682018060405250810190610aa29190612d2d565b610ad8576040517f500c44b400000000000000000000000000000000000000000000000000000000815260040160405180910390fd5b610ae68787878787876119c8565b5050505050505050565b60003411610b33576040517f08c379a0000000000000000000000000000000000000000000000000000000008152600401610b2a90612eb6565b60405180910390fd5b610b3d3382611ab4565b60008282604051602001610b52929190612ed6565b60405160208183030381529060405290506000610b843073ffffffffffffffffffffffffffffffffffffffff16611bf3565b90507f000000000000000000000000000000000000000000000000000000000000000073ffffffffffffffffffffffffffffffffffffffff16630c93e3bb343089898688336040518863ffffffff1660e01b8152600401610bea96959493929190612f54565b6000604051808303818588803b158015610c0357600080fd5b505af1158015610c17573d6000803e3d6000fd5b50505050507f000000000000000000000000000000000000000000000000000000000000000073ffffffffffffffffffffffffffffffffffffffff16631c92115f878784866040518563ffffffff1660e01b8152600401610c7b9493929190612fbe565b600060405180830381600087803b158015610c9557600080fd5b505af1158015610ca9573d6000803e3d6000fd5b50505050505050505050565b60007f360894a13ba1a3210667c828492db98dca3e2076cc3735a920a3ca505d382bbc54905090565b7f000000000000000000000000000000000000000000000000000000000000000081565b60006020528060005260406000206000915090505481565b3373ffffffffffffffffffffffffffffffffffffffff16610d39610efb565b73ffffffffffffffffffffffffffffffffffffffff1614610d86576040517f30cd747100000000000000000000000000000000000000000000000000000000815260040160405180910390fd5b600073ffffffffffffffffffffffffffffffffffffffff168173ffffffffffffffffffffffffffffffffffffffff161415610ded576040517fd924e5f400000000000000000000000000000000000000000000000000000000815260040160405180910390fd5b8073ffffffffffffffffffffffffffffffffffffffff167fd9be0e8e07417e00f2521db636cb53e316fd288f5051f16d2aa2bf0c3938a87660405160405180910390a2807f9855384122b55936fbfb8ca5120e63c6537a1ac40caf6ae33502b3c5da8c87d15550565b6000610e606114a2565b90503373ffffffffffffffffffffffffffffffffffffffff168173ffffffffffffffffffffffffffffffffffffffff1614610ec7576040517f49e27cff00000000000000000000000000000000000000000000000000000000815260040160405180910390fd5b610ed081611ef8565b50565b60007f6fd43e7cffc31bb581d7421c8698e29aa2bd8e7186a394b85299908b4eb9b175905090565b60007f02016836a56b71f0d02689e69e326f4f4c1b9057164ef592671cf0d37c8040c054905090565b60048054610f3190612bce565b80601f0160208091040260200160405190810160405280929190818152602001828054610f5d90612bce565b8015610faa5780601f10610f7f57610100808354040283529160200191610faa565b820191906000526020600020905b815481529060010190602001808311610f8d57829003601f168201915b505050505081565b7f000000000000000000000000000000000000000000000000000000000000000073ffffffffffffffffffffffffffffffffffffffff163073ffffffffffffffffffffffffffffffffffffffff161415611038576040517fbf10dd3a00000000000000000000000000000000000000000000000000000000815260040160405180910390fd5b6110428282611fec565b5050565b3373ffffffffffffffffffffffffffffffffffffffff16611065610efb565b73ffffffffffffffffffffffffffffffffffffffff16146110b2576040517f30cd747100000000000000000000000000000000000000000000000000000000815260040160405180910390fd5b3073ffffffffffffffffffffffffffffffffffffffff16638291286c6040518163ffffffff1660e01b815260040160206040518083038186803b1580156110f857600080fd5b505afa15801561110c573d6000803e3d6000fd5b505050506040513d601f19601f820116820180604052508101906111309190613021565b8473ffffffffffffffffffffffffffffffffffffffff16638291286c6040518163ffffffff1660e01b815260040160206040518083038186803b15801561117657600080fd5b505afa15801561118a573d6000803e3d6000fd5b505050506040513d601f19601f820116820180604052508101906111ae9190613021565b146111e5576040517f68155f9a00000000000000000000000000000000000000000000000000000000815260040160405180910390fd5b8373ffffffffffffffffffffffffffffffffffffffff163f8314611235576040517f8f84fb2400000000000000000000000000000000000000000000000000000000815260040160405180910390fd5b8373ffffffffffffffffffffffffffffffffffffffff167fbc7cd75a20ee27fd9adebab32041f755214dbc6bffa90cc0225b39da2e5c2d3b60405160405180910390a2600082829050111561139f5760008473ffffffffffffffffffffffffffffffffffffffff16639ded06df60e01b84846040516024016112b892919061307b565b604051602081830303815290604052907bffffffffffffffffffffffffffffffffffffffffffffffffffffffff19166020820180517bffffffffffffffffffffffffffffffffffffffffffffffffffffffff838183161783525050505060405161132291906130d0565b600060405180830381855af49150503d806000811461135d576040519150601f19603f3d011682016040523d82523d6000602084013e611362565b606091505b505090508061139d576040517f97905dfb00000000000000000000000000000000000000000000000000000000815260040160405180910390fd5b505b837f360894a13ba1a3210667c828492db98dca3e2076cc3735a920a3ca505d382bbc5550505050565b600061145c338484600160003373ffffffffffffffffffffffffffffffffffffffff1673ffffffffffffffffffffffffffffffffffffffff16815260200190815260200160002060008873ffffffffffffffffffffffffffffffffffffffff1673ffffffffffffffffffffffffffffffffffffffff168152602001908152602001600020546114579190612d89565b611543565b6001905092915050565b60006114733384846116d7565b6001905092915050565b6001602052816000526040600020602052806000526040600020600091509150505481565b60007f9855384122b55936fbfb8ca5120e63c6537a1ac40caf6ae33502b3c5da8c87d154905090565b3373ffffffffffffffffffffffffffffffffffffffff166114ea610efb565b73ffffffffffffffffffffffffffffffffffffffff1614611537576040517f30cd747100000000000000000000000000000000000000000000000000000000815260040160405180910390fd5b61154081611ef8565b50565b600073ffffffffffffffffffffffffffffffffffffffff168373ffffffffffffffffffffffffffffffffffffffff1614806115aa5750600073ffffffffffffffffffffffffffffffffffffffff168273ffffffffffffffffffffffffffffffffffffffff16145b156115e1576040517f6d187b2800000000000000000000000000000000000000000000000000000000815260040160405180910390fd5b80600160008573ffffffffffffffffffffffffffffffffffffffff1673ffffffffffffffffffffffffffffffffffffffff16815260200190815260200160002060008473ffffffffffffffffffffffffffffffffffffffff1673ffffffffffffffffffffffffffffffffffffffff168152602001908152602001600020819055508173ffffffffffffffffffffffffffffffffffffffff168373ffffffffffffffffffffffffffffffffffffffff167f8c5be1e5ebec7d5bd14f71427d1e84f3dd0314c0f7b2291e5b200ac8c7c3b925836040516116bf91906125d1565b60405180910390a3505050565b505050505050505050565b600073ffffffffffffffffffffffffffffffffffffffff168373ffffffffffffffffffffffffffffffffffffffff16148061173e5750600073ffffffffffffffffffffffffffffffffffffffff168273ffffffffffffffffffffffffffffffffffffffff16145b15611775576040517f6d187b2800000000000000000000000000000000000000000000000000000000815260040160405180910390fd5b806000808573ffffffffffffffffffffffffffffffffffffffff1673ffffffffffffffffffffffffffffffffffffffff16815260200190815260200160002060008282546117c39190612d89565b92505081905550806000808473ffffffffffffffffffffffffffffffffffffffff1673ffffffffffffffffffffffffffffffffffffffff16815260200190815260200160002060008282546118189190612dbd565b925050819055508173ffffffffffffffffffffffffffffffffffffffff168373ffffffffffffffffffffffffffffffffffffffff167fddf252ad1be2c89b69c2b068fc378daa952ba7f163c4a11628f55a4df523b3ef8360405161187c91906125d1565b60405180910390a3505050565b600073ffffffffffffffffffffffffffffffffffffffff168273ffffffffffffffffffffffffffffffffffffffff1614156118f0576040517f6d187b2800000000000000000000000000000000000000000000000000000000815260040160405180910390fd5b80600260008282546119029190612dbd565b92505081905550806000808473ffffffffffffffffffffffffffffffffffffffff1673ffffffffffffffffffffffffffffffffffffffff16815260200190815260200160002060008282546119579190612dbd565b925050819055508173ffffffffffffffffffffffffffffffffffffffff16600073ffffffffffffffffffffffffffffffffffffffff167fddf252ad1be2c89b69c2b068fc378daa952ba7f163c4a11628f55a4df523b3ef836040516119bc91906125d1565b60405180910390a35050565b3073ffffffffffffffffffffffffffffffffffffffff16611a2c85858080601f016020809104026020016040519081016040528093929190818152602001838380828437600081840152601f19601f8201169050808301925050505050505061207e565b73ffffffffffffffffffffffffffffffffffffffff1614611a89577f03daa0914739c74a32f06993c062b0ec6a2c0b8a39b5a0b8bff2a12ef55b9dc584848686604051611a7c94939291906130e7565b60405180910390a1611aac565b6000808383810190611a9b9190613160565b91509150611aa98282611889565b50505b505050505050565b600073ffffffffffffffffffffffffffffffffffffffff168273ffffffffffffffffffffffffffffffffffffffff161415611b1b576040517f6d187b2800000000000000000000000000000000000000000000000000000000815260040160405180910390fd5b806000808473ffffffffffffffffffffffffffffffffffffffff1673ffffffffffffffffffffffffffffffffffffffff1681526020019081526020016000206000828254611b699190612d89565b925050819055508060026000828254611b829190612d89565b92505081905550600073ffffffffffffffffffffffffffffffffffffffff168273ffffffffffffffffffffffffffffffffffffffff167fddf252ad1be2c89b69c2b068fc378daa952ba7f163c4a11628f55a4df523b3ef83604051611be791906125d1565b60405180910390a35050565b6060600082604051602001611c0891906131e8565b604051602081830303815290604052905060006040518060400160405280601081526020017f303132333435363738396162636465660000000000000000000000000000000081525090506000602a67ffffffffffffffff811115611c7057611c6f613203565b5b6040519080825280601f01601f191660200182016040528015611ca25781602001600182028036833780820191505090505b5090507f300000000000000000000000000000000000000000000000000000000000000081600081518110611cda57611cd9613232565b5b60200101907effffffffffffffffffffffffffffffffffffffffffffffffffffffffffffff1916908160001a9053507f780000000000000000000000000000000000000000000000000000000000000081600181518110611d3e57611d3d613232565b5b60200101907effffffffffffffffffffffffffffffffffffffffffffffffffffffffffffff1916908160001a90535060005b6014811015611eec57826004858381518110611d8f57611d8e613232565b5b602001015160f81c60f81b7effffffffffffffffffffffffffffffffffffffffffffffffffffffffffffff1916901c60f81c60ff1681518110611dd557611dd4613232565b5b602001015160f81c60f81b82600283611dee9190613261565b6002611dfa9190612dbd565b81518110611e0b57611e0a613232565b5b60200101907effffffffffffffffffffffffffffffffffffffffffffffffffffffffffffff1916908160001a90535082600f60f81b858381518110611e5357611e52613232565b5b602001015160f81c60f81b1660f81c60ff1681518110611e7657611e75613232565b5b602001015160f81c60f81b82600283611e8f9190613261565b6003611e9b9190612dbd565b81518110611eac57611eab613232565b5b60200101907effffffffffffffffffffffffffffffffffffffffffffffffffffffffffffff1916908160001a90535080611ee5906132bb565b9050611d70565b50809350505050919050565b600073ffffffffffffffffffffffffffffffffffffffff168173ffffffffffffffffffffffffffffffffffffffff161415611f5f576040517fd924e5f400000000000000000000000000000000000000000000000000000000815260040160405180910390fd5b8073ffffffffffffffffffffffffffffffffffffffff167f04dba622d284ed0014ee4b9a6a68386be1a4c08a4913ae272de89199cc68616360405160405180910390a2807f02016836a56b71f0d02689e69e326f4f4c1b9057164ef592671cf0d37c8040c05560007f9855384122b55936fbfb8ca5120e63c6537a1ac40caf6ae33502b3c5da8c87d15550565b6000808383810190611ffe91906133f6565b9150915060006003805461201190612bce565b90501461204a576040517f0dc149f000000000000000000000000000000000000000000000000000000000815260040160405180910390fd5b81600390805190602001906120609291906122cc565b5080600490805190602001906120779291906122cc565b5050505050565b600080829050600080602a83511415806120f857507f3000000000000000000000000000000000000000000000000000000000000000836000815181106120c8576120c7613232565b5b602001015160f81c60f81b7effffffffffffffffffffffffffffffffffffffffffffffffffffffffffffff191614155b8061216357507f78000000000000000000000000000000000000000000000000000000000000008360018151811061213357612132613232565b5b602001015160f81c60f81b7effffffffffffffffffffffffffffffffffffffffffffffffffffffffffffff191614155b1561219a576040517fdf48f19e00000000000000000000000000000000000000000000000000000000815260040160405180910390fd5b6000600290505b602a8110156122c0578381815181106121bd576121bc613232565b5b602001015160f81c60f81b60f81c915060618260ff16101580156121e5575060668260ff1611155b156121fe576057826121f7919061346e565b9150612294565b60418260ff1610158015612216575060468260ff1611155b1561222f57603782612228919061346e565b9150612293565b60308260ff1610158015612247575060398260ff1611155b1561226057603082612259919061346e565b9150612292565b6040517fdf48f19e00000000000000000000000000000000000000000000000000000000815260040160405180910390fd5b5b5b60028160296122a39190612d89565b901b8260ff16901b83179250806122b9906132bb565b90506121a1565b50819350505050919050565b8280546122d890612bce565b90600052602060002090601f0160209004810192826122fa5760008555612341565b82601f1061231357805160ff1916838001178555612341565b82800160010185558215612341579182015b82811115612340578251825591602001919060010190612325565b5b50905061234e9190612352565b5090565b5b8082111561236b576000816000905550600101612353565b5090565b600081519050919050565b600082825260208201905092915050565b60005b838110156123a957808201518184015260208101905061238e565b838111156123b8576000848401525b50505050565b6000601f19601f8301169050919050565b60006123da8261236f565b6123e4818561237a565b93506123f481856020860161238b565b6123fd816123be565b840191505092915050565b6000602082019050818103600083015261242281846123cf565b905092915050565b6000604051905090565b600080fd5b600080fd5b600073ffffffffffffffffffffffffffffffffffffffff82169050919050565b60006124698261243e565b9050919050565b6124798161245e565b811461248457600080fd5b50565b60008135905061249681612470565b92915050565b6000819050919050565b6124af8161249c565b81146124ba57600080fd5b50565b6000813590506124cc816124a6565b92915050565b600080604083850312156124e9576124e8612434565b5b60006124f785828601612487565b9250506020612508858286016124bd565b9150509250929050565b60008115159050919050565b61252781612512565b82525050565b6000602082019050612542600083018461251e565b92915050565b6000819050919050565b600061256d6125686125638461243e565b612548565b61243e565b9050919050565b600061257f82612552565b9050919050565b600061259182612574565b9050919050565b6125a181612586565b82525050565b60006020820190506125bc6000830184612598565b92915050565b6125cb8161249c565b82525050565b60006020820190506125e660008301846125c2565b92915050565b6000819050919050565b6125ff816125ec565b811461260a57600080fd5b50565b60008135905061261c816125f6565b92915050565b600080fd5b600080fd5b600080fd5b60008083601f84011261264757612646612622565b5b8235905067ffffffffffffffff81111561266457612663612627565b5b6020830191508360018202830111156126805761267f61262c565b5b9250929050565b60008083601f84011261269d5761269c612622565b5b8235905067ffffffffffffffff8111156126ba576126b9612627565b5b6020830191508360018202830111156126d6576126d561262c565b5b9250929050565b60008060008060008060008060008060c08b8d031215612700576126ff612434565b5b600061270e8d828e0161260d565b9a505060208b013567ffffffffffffffff81111561272f5761272e612439565b5b61273b8d828e01612631565b995099505060408b013567ffffffffffffffff81111561275e5761275d612439565b5b61276a8d828e01612631565b975097505060608b013567ffffffffffffffff81111561278d5761278c612439565b5b6127998d828e01612687565b955095505060808b013567ffffffffffffffff8111156127bc576127bb612439565b5b6127c88d828e01612631565b935093505060a06127db8d828e016124bd565b9150509295989b9194979a5092959850565b60008060006060848603121561280657612805612434565b5b600061281486828701612487565b935050602061282586828701612487565b9250506040612836868287016124bd565b9150509250925092565b600060ff82169050919050565b61285681612840565b82525050565b6000602082019050612871600083018461284d565b92915050565b60006020828403121561288d5761288c612434565b5b600061289b848285016124bd565b91505092915050565b60008060008060008060006080888a0312156128c3576128c2612434565b5b60006128d18a828b0161260d565b975050602088013567ffffffffffffffff8111156128f2576128f1612439565b5b6128fe8a828b01612631565b9650965050604088013567ffffffffffffffff81111561292157612920612439565b5b61292d8a828b01612631565b9450945050606088013567ffffffffffffffff8111156129505761294f612439565b5b61295c8a828b01612687565b925092505092959891949750929550565b6000806000806060858703121561298757612986612434565b5b600085013567ffffffffffffffff8111156129a5576129a4612439565b5b6129b187828801612631565b945094505060206129c487828801612487565b92505060406129d5878288016124bd565b91505092959194509250565b6129ea8161245e565b82525050565b6000602082019050612a0560008301846129e1565b92915050565b6000612a1682612574565b9050919050565b612a2681612a0b565b82525050565b6000602082019050612a416000830184612a1d565b92915050565b600060208284031215612a5d57612a5c612434565b5b6000612a6b84828501612487565b91505092915050565b612a7d816125ec565b82525050565b6000602082019050612a986000830184612a74565b92915050565b60008060208385031215612ab557612ab4612434565b5b600083013567ffffffffffffffff811115612ad357612ad2612439565b5b612adf85828601612687565b92509250509250929050565b60008060008060608587031215612b0557612b04612434565b5b6000612b1387828801612487565b9450506020612b248782880161260d565b935050604085013567ffffffffffffffff811115612b4557612b44612439565b5b612b5187828801612687565b925092505092959194509250565b60008060408385031215612b7657612b75612434565b5b6000612b8485828601612487565b9250506020612b9585828601612487565b9150509250929050565b7f4e487b7100000000000000000000000000000000000000000000000000000000600052602260045260246000fd5b60006002820490506001821680612be657607f821691505b60208210811415612bfa57612bf9612b9f565b5b50919050565b600081905092915050565b82818337600083830152505050565b6000612c268385612c00565b9350612c33838584612c0b565b82840190509392505050565b6000612c4c828486612c1a565b91508190509392505050565b6000612c64838561237a565b9350612c71838584612c0b565b612c7a836123be565b840190509392505050565b600060c082019050612c9a600083018c612a74565b8181036020830152612cad818a8c612c58565b90508181036040830152612cc281888a612c58565b9050612cd16060830187612a74565b8181036080830152612ce4818587612c58565b9050612cf360a08301846125c2565b9a9950505050505050505050565b612d0a81612512565b8114612d1557600080fd5b50565b600081519050612d2781612d01565b92915050565b600060208284031215612d4357612d42612434565b5b6000612d5184828501612d18565b91505092915050565b7f4e487b7100000000000000000000000000000000000000000000000000000000600052601160045260246000fd5b6000612d948261249c565b9150612d9f8361249c565b925082821015612db257612db1612d5a565b5b828203905092915050565b6000612dc88261249c565b9150612dd38361249c565b9250827fffffffffffffffffffffffffffffffffffffffffffffffffffffffffffffffff03821115612e0857612e07612d5a565b5b828201905092915050565b6000608082019050612e286000830189612a74565b8181036020830152612e3b818789612c58565b90508181036040830152612e50818587612c58565b9050612e5f6060830184612a74565b979650505050505050565b7f476173207061796d656e74206973207265717569726564000000000000000000600082015250565b6000612ea060178361237a565b9150612eab82612e6a565b602082019050919050565b60006020820190508181036000830152612ecf81612e93565b9050919050565b6000604082019050612eeb60008301856129e1565b612ef860208301846125c2565b9392505050565b600081519050919050565b600082825260208201905092915050565b6000612f2682612eff565b612f308185612f0a565b9350612f4081856020860161238b565b612f49816123be565b840191505092915050565b600060a082019050612f6960008301896129e1565b8181036020830152612f7c818789612c58565b90508181036040830152612f9081866123cf565b90508181036060830152612fa48185612f1b565b9050612fb360808301846129e1565b979650505050505050565b60006060820190508181036000830152612fd9818688612c58565b90508181036020830152612fed81856123cf565b905081810360408301526130018184612f1b565b905095945050505050565b60008151905061301b816125f6565b92915050565b60006020828403121561303757613036612434565b5b60006130458482850161300c565b91505092915050565b600061305a8385612f0a565b9350613067838584612c0b565b613070836123be565b840190509392505050565b6000602082019050818103600083015261309681848661304e565b90509392505050565b60006130aa82612eff565b6130b48185612c00565b93506130c481856020860161238b565b80840191505092915050565b60006130dc828461309f565b915081905092915050565b60006040820190508181036000830152613102818688612c58565b90508181036020830152613117818486612c58565b905095945050505050565b600061312d8261243e565b9050919050565b61313d81613122565b811461314857600080fd5b50565b60008135905061315a81613134565b92915050565b6000806040838503121561317757613176612434565b5b60006131858582860161314b565b9250506020613196858286016124bd565b9150509250929050565b60008160601b9050919050565b60006131b8826131a0565b9050919050565b60006131ca826131ad565b9050919050565b6131e26131dd8261245e565b6131bf565b82525050565b60006131f482846131d1565b60148201915081905092915050565b7f4e487b7100000000000000000000000000000000000000000000000000000000600052604160045260246000fd5b7f4e487b7100000000000000000000000000000000000000000000000000000000600052603260045260246000fd5b600061326c8261249c565b91506132778361249c565b9250817fffffffffffffffffffffffffffffffffffffffffffffffffffffffffffffffff04831182151516156132b0576132af612d5a565b5b828202905092915050565b60006132c68261249c565b91507fffffffffffffffffffffffffffffffffffffffffffffffffffffffffffffffff8214156132f9576132f8612d5a565b5b600182019050919050565b600080fd5b613312826123be565b810181811067ffffffffffffffff8211171561333157613330613203565b5b80604052505050565b600061334461242a565b90506133508282613309565b919050565b600067ffffffffffffffff8211156133705761336f613203565b5b613379826123be565b9050602081019050919050565b600061339961339484613355565b61333a565b9050828152602081018484840111156133b5576133b4613304565b5b6133c0848285612c0b565b509392505050565b600082601f8301126133dd576133dc612622565b5b81356133ed848260208601613386565b91505092915050565b6000806040838503121561340d5761340c612434565b5b600083013567ffffffffffffffff81111561342b5761342a612439565b5b613437858286016133c8565b925050602083013567ffffffffffffffff81111561345857613457612439565b5b613464858286016133c8565b9150509250929050565b600061347982612840565b915061348483612840565b92508282101561349757613496612d5a565b5b82820390509291505056fea2646970667358221220137d1eaab5baf77062be7aad6131dd6b913766a7f8200389203c9155437b418864736f6c63430008090033",
  "immutableReferences": {
    "27": [
      {
        "length": 32,
        "start": 2308
      }
    ],
    "451": [
      {
        "length": 32,
        "start": 1752
      },
      {
        "length": 32,
        "start": 1822
      },
      {
        "length": 32,
        "start": 2543
      },
      {
        "length": 32,
        "start": 3102
      }
    ],
    "1796": [
      {
        "length": 32,
        "start": 4020
      }
    ],
    "2104": [
      {
        "length": 32,
        "start": 2952
      },
      {
        "length": 32,
        "start": 3296
      }
    ]
  },
  "source": "// SPDX-License-Identifier: MIT\npragma solidity ^0.8.0;\n\nimport { IAxelarGateway } from '@axelar-network/axelar-gmp-sdk-solidity/contracts/interfaces/IAxelarGateway.sol';\nimport { IAxelarGasService } from '@axelar-network/axelar-gmp-sdk-solidity/contracts/interfaces/IAxelarGasService.sol';\nimport { IERC20CrossChain } from './IERC20CrossChain.sol';\nimport { ERC20 } from '@axelar-network/axelar-cgp-solidity/contracts/ERC20.sol';\nimport { AxelarExecutable } from '@axelar-network/axelar-gmp-sdk-solidity/contracts/executable/AxelarExecutable.sol';\nimport { Upgradable } from '@axelar-network/axelar-gmp-sdk-solidity/contracts/upgradable/Upgradable.sol';\nimport { StringToAddress, AddressToString } from '@axelar-network/axelar-gmp-sdk-solidity/contracts/libs/AddressString.sol';\n\ncontract ERC20CrossChain is AxelarExecutable, ERC20, Upgradable, IERC20CrossChain {\n    using StringToAddress for string;\n    using AddressToString for address;\n\n    error AlreadyInitialized();\n\n    event FalseSender(string sourceChain, string sourceAddress);\n\n    IAxelarGasService public immutable gasService;\n\n    constructor(\n        address gateway_,\n        address gasReceiver_,\n        uint8 decimals_\n    ) AxelarExecutable(gateway_) ERC20('', '', decimals_) {\n        gasService = IAxelarGasService(gasReceiver_);\n    }\n\n    function _setup(bytes calldata params) internal override {\n        (string memory name_, string memory symbol_) = abi.decode(params, (string, string));\n        if (bytes(name).length != 0) revert AlreadyInitialized();\n        name = name_;\n        symbol = symbol_;\n    }\n\n    // This is for testing.\n    function giveMe(uint256 amount) external {\n        _mint(msg.sender, amount);\n    }\n\n    function transferRemote(\n        string calldata destinationChain,\n        address destinationAddress,\n        uint256 amount\n    ) public payable override {\n        require(msg.value > 0, 'Gas payment is required');\n\n\n        _burn(msg.sender, amount);\n        bytes memory payload = abi.encode(destinationAddress, amount);\n        string memory stringAddress = address(this).toString();\n        gasService.payNativeGasForContractCall{ value: msg.value }(\n            address(this),\n            destinationChain,\n            stringAddress,\n            payload,\n            msg.sender\n        );\n        gateway.callContract(destinationChain, stringAddress, payload);\n    }\n\n    function _execute(\n        string calldata, /*sourceChain*/\n        string calldata sourceAddress,\n        bytes calldata payload\n    ) internal override {\n        if (sourceAddress.toAddress() != address(this)) {\n            emit FalseSender(sourceAddress, sourceAddress);\n            return;\n        }\n        (address to, uint256 amount) = abi.decode(payload, (address, uint256));\n        _mint(to, amount);\n    }\n\n    function contractId() external pure returns (bytes32) {\n        return keccak256('example');\n    }\n}\n",
  "sourcePath": "/Users/bora/experiments/linea-interchain-workshop-with-axelar/truffle/contracts/ERC20CrossChain.sol",
  "compiler": {
    "name": "solc",
    "version": "0.8.9+commit.e5eed63a.Emscripten.clang"
  },
  "schemaVersion": "3.4.15",
  "updatedAt": "2023-09-03T02:09:55.959Z",
  "networkType": "ethereum",
  "devdoc": {
    "kind": "dev",
    "methods": {
      "acceptOwnership()": {
        "details": "Can only be called by the pending owner"
      },
      "approve(address,uint256)": {
        "details": "See {IERC20-approve}. NOTE: If `amount` is the maximum `uint256`, the allowance is not updated on `transferFrom`. This is semantically equivalent to an infinite approval. Requirements: - `spender` cannot be the zero address."
      },
      "contractId()": {
        "details": "Meant to be overridden in derived contracts.",
        "returns": {
          "_0": "bytes32 The contract ID"
        }
      },
      "decreaseAllowance(address,uint256)": {
        "details": "Atomically decreases the allowance granted to `spender` by the caller. This is an alternative to {approve} that can be used as a mitigation for problems described in {IERC20-approve}. Emits an {Approval} event indicating the updated allowance. Requirements: - `spender` cannot be the zero address. - `spender` must have allowance for the caller of at least `subtractedValue`."
      },
      "implementation()": {
        "returns": {
          "implementation_": "Address of the current implementation"
        }
      },
      "increaseAllowance(address,uint256)": {
        "details": "Atomically increases the allowance granted to `spender` by the caller. This is an alternative to {approve} that can be used as a mitigation for problems described in {IERC20-approve}. Emits an {Approval} event indicating the updated allowance. Requirements: - `spender` cannot be the zero address."
      },
      "owner()": {
        "returns": {
          "owner_": "The current owner of the contract"
        }
      },
      "pendingOwner()": {
        "returns": {
          "owner_": "The pending owner of the contract"
        }
      },
      "proposeOwnership(address)": {
        "details": "Can only be called by the current owner. The ownership does not change until the new owner accepts the ownership transfer.",
        "params": {
          "newOwner": "The address to transfer ownership to"
        }
      },
      "setup(bytes)": {
        "details": "This function is only callable by the proxy contract.",
        "params": {
          "data": "Initialization data for the contract"
        }
      },
      "transfer(address,uint256)": {
        "details": "See {IERC20-transfer}. Requirements: - `recipient` cannot be the zero address. - the caller must have a balance of at least `amount`."
      },
      "transferFrom(address,address,uint256)": {
        "details": "See {IERC20-transferFrom}. Emits an {Approval} event indicating the updated allowance. This is not required by the EIP. See the note at the beginning of {ERC20}. Requirements: - `sender` and `recipient` cannot be the zero address. - `sender` must have a balance of at least `amount`. - the caller must have allowance for ``sender``'s tokens of at least `amount`."
      },
      "transferOwnership(address)": {
        "details": "Can only be called by the current owner.",
        "params": {
          "newOwner": "The address to transfer ownership to"
        }
      },
      "upgrade(address,bytes32,bytes)": {
        "details": "This function is only callable by the owner.",
        "params": {
          "newImplementation": "The address of the new implementation contract",
          "newImplementationCodeHash": "The codehash of the new implementation contract",
          "params": "Optional setup parameters for the new implementation contract"
        }
      }
    },
    "version": 1
  },
  "userdoc": {
    "kind": "user",
    "methods": {
      "acceptOwnership()": {
        "notice": "Accepts ownership of the contract."
      },
      "contractId()": {
        "notice": "Returns the contract ID. It can be used as a check during upgrades."
      },
      "implementation()": {
        "notice": "Returns the address of the current implementation"
      },
      "owner()": {
        "notice": "Returns the current owner of the contract."
      },
      "pendingOwner()": {
        "notice": "Returns the pending owner of the contract."
      },
      "proposeOwnership(address)": {
        "notice": "Propose to transfer ownership of the contract to a new account `newOwner`."
      },
      "setup(bytes)": {
        "notice": "Sets up the contract with initial data"
      },
      "transferOwnership(address)": {
        "notice": "Transfers ownership of the contract to a new account `newOwner`."
      },
      "upgrade(address,bytes32,bytes)": {
        "notice": "Upgrades the contract to a new implementation"
      }
    },
    "version": 1
  }
}