{
  "contractName": "SendMessage",
  "abi": [
    {
      "inputs": [
        {
          "internalType": "address",
          "name": "gateway_",
          "type": "address"
        },
        {
          "internalType": "address",
          "name": "gasReceiver_",
          "type": "address"
        }
      ],
      "stateMutability": "nonpayable",
      "type": "constructor"
    },
    {
      "inputs": [],
      "name": "InvalidAddress",
      "type": "error"
    },
    {
      "inputs": [],
      "name": "NotApprovedByGateway",
      "type": "error"
    },
    {
      "inputs": [
        {
          "internalType": "bytes32",
          "name": "commandId",
          "type": "bytes32"
        },
        {
          "internalType": "string",
          "name": "sourceChain",
          "type": "string"
        },
        {
          "internalType": "string",
          "name": "sourceAddress",
          "type": "string"
        },
        {
          "internalType": "bytes",
          "name": "payload",
          "type": "bytes"
        }
      ],
      "name": "execute",
      "outputs": [],
      "stateMutability": "nonpayable",
      "type": "function"
    },
    {
      "inputs": [
        {
          "internalType": "bytes32",
          "name": "commandId",
          "type": "bytes32"
        },
        {
          "internalType": "string",
          "name": "sourceChain",
          "type": "string"
        },
        {
          "internalType": "string",
          "name": "sourceAddress",
          "type": "string"
        },
        {
          "internalType": "bytes",
          "name": "payload",
          "type": "bytes"
        },
        {
          "internalType": "string",
          "name": "tokenSymbol",
          "type": "string"
        },
        {
          "internalType": "uint256",
          "name": "amount",
          "type": "uint256"
        }
      ],
      "name": "executeWithToken",
      "outputs": [],
      "stateMutability": "nonpayable",
      "type": "function"
    },
    {
      "inputs": [],
      "name": "gasService",
      "outputs": [
        {
          "internalType": "contract IAxelarGasService",
          "name": "",
          "type": "address"
        }
      ],
      "stateMutability": "view",
      "type": "function",
      "constant": true
    },
    {
      "inputs": [],
      "name": "gateway",
      "outputs": [
        {
          "internalType": "contract IAxelarGateway",
          "name": "",
          "type": "address"
        }
      ],
      "stateMutability": "view",
      "type": "function",
      "constant": true
    },
    {
      "inputs": [],
      "name": "message",
      "outputs": [
        {
          "internalType": "string",
          "name": "",
          "type": "string"
        }
      ],
      "stateMutability": "view",
      "type": "function",
      "constant": true
    },
    {
      "inputs": [],
      "name": "sourceAddress",
      "outputs": [
        {
          "internalType": "string",
          "name": "",
          "type": "string"
        }
      ],
      "stateMutability": "view",
      "type": "function",
      "constant": true
    },
    {
      "inputs": [],
      "name": "sourceChain",
      "outputs": [
        {
          "internalType": "string",
          "name": "",
          "type": "string"
        }
      ],
      "stateMutability": "view",
      "type": "function",
      "constant": true
    },
    {
      "inputs": [
        {
          "internalType": "string",
          "name": "destinationChain",
          "type": "string"
        },
        {
          "internalType": "string",
          "name": "destinationAddress",
          "type": "string"
        },
        {
          "internalType": "string",
          "name": "value_",
          "type": "string"
        }
      ],
      "name": "sendMessage",
      "outputs": [],
      "stateMutability": "payable",
      "type": "function",
      "payable": true
    }
  ],
  "bytecode": "0x60c06040523480156200001157600080fd5b50604051620018143803806200181483398181016040528101906200003791906200017a565b81600073ffffffffffffffffffffffffffffffffffffffff168173ffffffffffffffffffffffffffffffffffffffff16036200009f576040517fe6c4247b00000000000000000000000000000000000000000000000000000000815260040160405180910390fd5b8073ffffffffffffffffffffffffffffffffffffffff1660808173ffffffffffffffffffffffffffffffffffffffff1681525050508073ffffffffffffffffffffffffffffffffffffffff1660a08173ffffffffffffffffffffffffffffffffffffffff16815250505050620001c1565b600080fd5b600073ffffffffffffffffffffffffffffffffffffffff82169050919050565b6000620001428262000115565b9050919050565b620001548162000135565b81146200016057600080fd5b50565b600081519050620001748162000149565b92915050565b6000806040838503121562000194576200019362000110565b5b6000620001a48582860162000163565b9250506020620001b78582860162000163565b9150509250929050565b60805160a051611611620002036000396000818161023001526106420152600081816102c801528181610364015281816103a4015261054e01526116116000f3fe60806040526004361061007b5760003560e01c8063491606581161004e578063491606581461011b5780636a22d8cc14610144578063b0fa84441461016f578063e21f37ce1461019a5761007b565b80630eabeffe14610080578063116191b61461009c5780631a98b2e0146100c75780631c6ffa46146100f0575b600080fd5b61009a6004803603810190610095919061084e565b6101c5565b005b3480156100a857600080fd5b506100b1610362565b6040516100be9190610981565b60405180910390f35b3480156100d357600080fd5b506100ee60048036038101906100e99190610a5e565b610386565b005b3480156100fc57600080fd5b506101056104a2565b6040516101129190610bfe565b60405180910390f35b34801561012757600080fd5b50610142600480360381019061013d9190610c20565b610530565b005b34801561015057600080fd5b50610159610640565b6040516101669190610d0a565b60405180910390f35b34801561017b57600080fd5b50610184610664565b6040516101919190610bfe565b60405180910390f35b3480156101a657600080fd5b506101af6106f2565b6040516101bc9190610bfe565b60405180910390f35b60003411610208576040517f08c379a00000000000000000000000000000000000000000000000000000000081526004016101ff90610d71565b60405180910390fd5b6000828260405160200161021d929190610dcd565b60405160208183030381529060405290507f000000000000000000000000000000000000000000000000000000000000000073ffffffffffffffffffffffffffffffffffffffff16630c93e3bb34308a8a8a8a88336040518963ffffffff1660e01b81526004016102949796959493929190610e67565b6000604051808303818588803b1580156102ad57600080fd5b505af11580156102c1573d6000803e3d6000fd5b50505050507f000000000000000000000000000000000000000000000000000000000000000073ffffffffffffffffffffffffffffffffffffffff16631c92115f88888888866040518663ffffffff1660e01b8152600401610327959493929190610ed3565b600060405180830381600087803b15801561034157600080fd5b505af1158015610355573d6000803e3d6000fd5b5050505050505050505050565b7f000000000000000000000000000000000000000000000000000000000000000081565b60008585604051610398929190610f53565b604051809103902090507f000000000000000000000000000000000000000000000000000000000000000073ffffffffffffffffffffffffffffffffffffffff16631876eed98c8c8c8c8c878b8b8b6040518a63ffffffff1660e01b815260040161040b99989796959493929190610f8a565b6020604051808303816000875af115801561042a573d6000803e3d6000fd5b505050506040513d601f19601f8201168201806040525081019061044e919061103e565b610484576040517f500c44b400000000000000000000000000000000000000000000000000000000815260040160405180910390fd5b6104958a8a8a8a8a8a8a8a8a610780565b5050505050505050505050565b600180546104af9061109a565b80601f01602080910402602001604051908101604052809291908181526020018280546104db9061109a565b80156105285780601f106104fd57610100808354040283529160200191610528565b820191906000526020600020905b81548152906001019060200180831161050b57829003601f168201915b505050505081565b60008282604051610542929190610f53565b604051809103902090507f000000000000000000000000000000000000000000000000000000000000000073ffffffffffffffffffffffffffffffffffffffff16635f6970c38989898989876040518763ffffffff1660e01b81526004016105af969594939291906110cb565b6020604051808303816000875af11580156105ce573d6000803e3d6000fd5b505050506040513d601f19601f820116820180604052508101906105f2919061103e565b610628576040517f500c44b400000000000000000000000000000000000000000000000000000000815260040160405180910390fd5b61063687878787878761078b565b5050505050505050565b7f000000000000000000000000000000000000000000000000000000000000000081565b600280546106719061109a565b80601f016020809104026020016040519081016040528092919081815260200182805461069d9061109a565b80156106ea5780601f106106bf576101008083540402835291602001916106ea565b820191906000526020600020905b8154815290600101906020018083116106cd57829003601f168201915b505050505081565b600080546106ff9061109a565b80601f016020809104026020016040519081016040528092919081815260200182805461072b9061109a565b80156107785780601f1061074d57610100808354040283529160200191610778565b820191906000526020600020905b81548152906001019060200180831161075b57829003601f168201915b505050505081565b505050505050505050565b818181019061079a9190611243565b600090816107a8919061142e565b508585600191826107ba92919061150b565b508383600291826107cc92919061150b565b50505050505050565b6000604051905090565b600080fd5b600080fd5b600080fd5b600080fd5b600080fd5b60008083601f84011261080e5761080d6107e9565b5b8235905067ffffffffffffffff81111561082b5761082a6107ee565b5b602083019150836001820283011115610847576108466107f3565b5b9250929050565b6000806000806000806060878903121561086b5761086a6107df565b5b600087013567ffffffffffffffff811115610889576108886107e4565b5b61089589828a016107f8565b9650965050602087013567ffffffffffffffff8111156108b8576108b76107e4565b5b6108c489828a016107f8565b9450945050604087013567ffffffffffffffff8111156108e7576108e66107e4565b5b6108f389828a016107f8565b92509250509295509295509295565b600073ffffffffffffffffffffffffffffffffffffffff82169050919050565b6000819050919050565b600061094761094261093d84610902565b610922565b610902565b9050919050565b60006109598261092c565b9050919050565b600061096b8261094e565b9050919050565b61097b81610960565b82525050565b60006020820190506109966000830184610972565b92915050565b6000819050919050565b6109af8161099c565b81146109ba57600080fd5b50565b6000813590506109cc816109a6565b92915050565b60008083601f8401126109e8576109e76107e9565b5b8235905067ffffffffffffffff811115610a0557610a046107ee565b5b602083019150836001820283011115610a2157610a206107f3565b5b9250929050565b6000819050919050565b610a3b81610a28565b8114610a4657600080fd5b50565b600081359050610a5881610a32565b92915050565b60008060008060008060008060008060c08b8d031215610a8157610a806107df565b5b6000610a8f8d828e016109bd565b9a505060208b013567ffffffffffffffff811115610ab057610aaf6107e4565b5b610abc8d828e016107f8565b995099505060408b013567ffffffffffffffff811115610adf57610ade6107e4565b5b610aeb8d828e016107f8565b975097505060608b013567ffffffffffffffff811115610b0e57610b0d6107e4565b5b610b1a8d828e016109d2565b955095505060808b013567ffffffffffffffff811115610b3d57610b3c6107e4565b5b610b498d828e016107f8565b935093505060a0610b5c8d828e01610a49565b9150509295989b9194979a5092959850565b600081519050919050565b600082825260208201905092915050565b60005b83811015610ba8578082015181840152602081019050610b8d565b60008484015250505050565b6000601f19601f8301169050919050565b6000610bd082610b6e565b610bda8185610b79565b9350610bea818560208601610b8a565b610bf381610bb4565b840191505092915050565b60006020820190508181036000830152610c188184610bc5565b905092915050565b60008060008060008060006080888a031215610c3f57610c3e6107df565b5b6000610c4d8a828b016109bd565b975050602088013567ffffffffffffffff811115610c6e57610c6d6107e4565b5b610c7a8a828b016107f8565b9650965050604088013567ffffffffffffffff811115610c9d57610c9c6107e4565b5b610ca98a828b016107f8565b9450945050606088013567ffffffffffffffff811115610ccc57610ccb6107e4565b5b610cd88a828b016109d2565b925092505092959891949750929550565b6000610cf48261094e565b9050919050565b610d0481610ce9565b82525050565b6000602082019050610d1f6000830184610cfb565b92915050565b7f476173207061796d656e74206973207265717569726564000000000000000000600082015250565b6000610d5b601783610b79565b9150610d6682610d25565b602082019050919050565b60006020820190508181036000830152610d8a81610d4e565b9050919050565b82818337600083830152505050565b6000610dac8385610b79565b9350610db9838584610d91565b610dc283610bb4565b840190509392505050565b60006020820190508181036000830152610de8818486610da0565b90509392505050565b6000610dfc82610902565b9050919050565b610e0c81610df1565b82525050565b600081519050919050565b600082825260208201905092915050565b6000610e3982610e12565b610e438185610e1d565b9350610e53818560208601610b8a565b610e5c81610bb4565b840191505092915050565b600060a082019050610e7c600083018a610e03565b8181036020830152610e8f81888a610da0565b90508181036040830152610ea4818688610da0565b90508181036060830152610eb88185610e2e565b9050610ec76080830184610e03565b98975050505050505050565b60006060820190508181036000830152610eee818789610da0565b90508181036020830152610f03818587610da0565b90508181036040830152610f178184610e2e565b90509695505050505050565b600081905092915050565b6000610f3a8385610f23565b9350610f47838584610d91565b82840190509392505050565b6000610f60828486610f2e565b91508190509392505050565b610f758161099c565b82525050565b610f8481610a28565b82525050565b600060c082019050610f9f600083018c610f6c565b8181036020830152610fb2818a8c610da0565b90508181036040830152610fc781888a610da0565b9050610fd66060830187610f6c565b8181036080830152610fe9818587610da0565b9050610ff860a0830184610f7b565b9a9950505050505050505050565b60008115159050919050565b61101b81611006565b811461102657600080fd5b50565b60008151905061103881611012565b92915050565b600060208284031215611054576110536107df565b5b600061106284828501611029565b91505092915050565b7f4e487b7100000000000000000000000000000000000000000000000000000000600052602260045260246000fd5b600060028204905060018216806110b257607f821691505b6020821081036110c5576110c461106b565b5b50919050565b60006080820190506110e06000830189610f6c565b81810360208301526110f3818789610da0565b90508181036040830152611108818587610da0565b90506111176060830184610f6c565b979650505050505050565b600080fd5b7f4e487b7100000000000000000000000000000000000000000000000000000000600052604160045260246000fd5b61115f82610bb4565b810181811067ffffffffffffffff8211171561117e5761117d611127565b5b80604052505050565b60006111916107d5565b905061119d8282611156565b919050565b600067ffffffffffffffff8211156111bd576111bc611127565b5b6111c682610bb4565b9050602081019050919050565b60006111e66111e1846111a2565b611187565b90508281526020810184848401111561120257611201611122565b5b61120d848285610d91565b509392505050565b600082601f83011261122a576112296107e9565b5b813561123a8482602086016111d3565b91505092915050565b600060208284031215611259576112586107df565b5b600082013567ffffffffffffffff811115611277576112766107e4565b5b61128384828501611215565b91505092915050565b60008190508160005260206000209050919050565b60006020601f8301049050919050565b600082821b905092915050565b6000600883026112ee7fffffffffffffffffffffffffffffffffffffffffffffffffffffffffffffffff826112b1565b6112f886836112b1565b95508019841693508086168417925050509392505050565b600061132b61132661132184610a28565b610922565b610a28565b9050919050565b6000819050919050565b61134583611310565b61135961135182611332565b8484546112be565b825550505050565b600090565b61136e611361565b61137981848461133c565b505050565b5b8181101561139d57611392600082611366565b60018101905061137f565b5050565b601f8211156113e2576113b38161128c565b6113bc846112a1565b810160208510156113cb578190505b6113df6113d7856112a1565b83018261137e565b50505b505050565b600082821c905092915050565b6000611405600019846008026113e7565b1980831691505092915050565b600061141e83836113f4565b9150826002028217905092915050565b61143782610b6e565b67ffffffffffffffff8111156114505761144f611127565b5b61145a825461109a565b6114658282856113a1565b600060209050601f8311600181146114985760008415611486578287015190505b6114908582611412565b8655506114f8565b601f1984166114a68661128c565b60005b828110156114ce578489015182556001820191506020850194506020810190506114a9565b868310156114eb57848901516114e7601f8916826113f4565b8355505b6001600288020188555050505b505050505050565b600082905092915050565b6115158383611500565b67ffffffffffffffff81111561152e5761152d611127565b5b611538825461109a565b6115438282856113a1565b6000601f8311600181146115725760008415611560578287013590505b61156a8582611412565b8655506115d2565b601f1984166115808661128c565b60005b828110156115a857848901358255600182019150602085019450602081019050611583565b868310156115c557848901356115c1601f8916826113f4565b8355505b6001600288020188555050505b5050505050505056fea264697066735822122049f4ea4f77201e7c8354fc8f75042ff066d3e31a9b6f7c3c643eb15200f7362364736f6c63430008130033",
  "immutableReferences": {
    "10": [
      {
        "length": 32,
        "start": 712
      },
      {
        "length": 32,
        "start": 868
      },
      {
        "length": 32,
        "start": 932
      },
      {
        "length": 32,
        "start": 1358
      }
    ],
    "1337": [
      {
        "length": 32,
        "start": 560
      },
      {
        "length": 32,
        "start": 1602
      }
    ]
  },
  "source": "// SPDX-License-Identifier: MIT\n// SPDX license identifier specifies which open-source license is being used for the contract\npragma solidity 0.8.19;\n\n// Importing external contracts for dependencies\nimport {AxelarExecutable} from \"@axelar-network/axelar-gmp-sdk-solidity/contracts/executable/AxelarExecutable.sol\";\nimport {IAxelarGateway} from \"@axelar-network/axelar-gmp-sdk-solidity/contracts/interfaces/IAxelarGateway.sol\";\nimport {IAxelarGasService} from \"@axelar-network/axelar-gmp-sdk-solidity/contracts/interfaces/IAxelarGasService.sol\";\nimport {IERC20} from \"@axelar-network/axelar-gmp-sdk-solidity/contracts/interfaces/IERC20.sol\";\n\n// Contract definition and name\ncontract SendMessage is AxelarExecutable {\n    // Three state variables that any function in the contract can access\n    string public message;\n    string public sourceChain;\n    string public sourceAddress;\n\n    // State variable that can only be set during contract deployment and is immutable after that\n    IAxelarGasService public immutable gasService;\n\n    // Contract constructor function gets called when the contract is first deployed\n    constructor(\n        address gateway_,\n        address gasReceiver_\n    ) AxelarExecutable(gateway_) {\n        // Sets the immutable state variable to the address of gasReceiver_\n        gasService = IAxelarGasService(gasReceiver_);\n    }\n\n    // Call this function to update the value of this contract along with all its siblings.\n    function sendMessage(\n        string calldata destinationChain,\n        string calldata destinationAddress,\n        string calldata value_\n    ) external payable {\n        require(msg.value > 0, \"Gas payment is required\");\n\n        // Encodes the new value string into bytes, which can be sent to the Axelar gateway contract\n        bytes memory payload = abi.encode(value_);\n\n        gasService.payNativeGasForContractCall{value: msg.value}(\n            address(this),\n            destinationChain,\n            destinationAddress,\n            payload,\n            msg.sender\n        );\n        // Calls the Axelar gateway contract with the specified destination chain and address and sends the payload along with the call\n        gateway.callContract(destinationChain, destinationAddress, payload);\n    }\n\n    // Handles calls created by setAndSend. Updates this contract's value\n    function _execute(\n        string calldata sourceChain_,\n        string calldata sourceAddress_,\n        bytes calldata payload_\n    ) internal override {\n        // Decodes the payload bytes into the string message and sets the state variable for this contract\n        (message) = abi.decode(payload_, (string));\n        // Sets the sourceChain and sourceAddress state variables with the provided arguments\n        sourceChain = sourceChain_;\n        sourceAddress = sourceAddress_;\n    }\n}\n",
  "sourcePath": "/Users/bora/experiments/linea-interchain-workshop-with-axelar/truffle/contracts/SendMessage.sol",
  "compiler": {
    "name": "solc",
    "version": "0.8.19+commit.7dd6d404.Emscripten.clang"
  },
  "schemaVersion": "3.4.15",
  "updatedAt": "2023-09-03T02:09:55.946Z",
  "networkType": "ethereum",
  "devdoc": {
    "kind": "dev",
    "methods": {},
    "version": 1
  },
  "userdoc": {
    "kind": "user",
    "methods": {},
    "version": 1
  }
}